{
  "contractName": "CompanyContract",
  "abi": [
    {
      "inputs": [
        {
          "internalType": "string",
          "name": "company_name_",
          "type": "string"
        },
        {
          "internalType": "address[]",
          "name": "founders_",
          "type": "address[]"
        },
        {
          "internalType": "uint256",
          "name": "num_shares_",
          "type": "uint256"
        }
      ],
      "stateMutability": "nonpayable",
      "type": "constructor"
    },
    {
      "anonymous": false,
      "inputs": [
        {
          "indexed": true,
          "internalType": "address",
          "name": "account",
          "type": "address"
        },
        {
          "indexed": true,
          "internalType": "address",
          "name": "operator",
          "type": "address"
        },
        {
          "indexed": false,
          "internalType": "bool",
          "name": "approved",
          "type": "bool"
        }
      ],
      "name": "ApprovalForAll",
      "type": "event"
    },
    {
      "anonymous": false,
      "inputs": [
        {
          "indexed": true,
          "internalType": "address",
          "name": "operator",
          "type": "address"
        },
        {
          "indexed": true,
          "internalType": "address",
          "name": "from",
          "type": "address"
        },
        {
          "indexed": true,
          "internalType": "address",
          "name": "to",
          "type": "address"
        },
        {
          "indexed": false,
          "internalType": "uint256[]",
          "name": "ids",
          "type": "uint256[]"
        },
        {
          "indexed": false,
          "internalType": "uint256[]",
          "name": "values",
          "type": "uint256[]"
        }
      ],
      "name": "TransferBatch",
      "type": "event"
    },
    {
      "anonymous": false,
      "inputs": [
        {
          "indexed": true,
          "internalType": "address",
          "name": "operator",
          "type": "address"
        },
        {
          "indexed": true,
          "internalType": "address",
          "name": "from",
          "type": "address"
        },
        {
          "indexed": true,
          "internalType": "address",
          "name": "to",
          "type": "address"
        },
        {
          "indexed": false,
          "internalType": "uint256",
          "name": "id",
          "type": "uint256"
        },
        {
          "indexed": false,
          "internalType": "uint256",
          "name": "value",
          "type": "uint256"
        }
      ],
      "name": "TransferSingle",
      "type": "event"
    },
    {
      "anonymous": false,
      "inputs": [
        {
          "indexed": false,
          "internalType": "string",
          "name": "value",
          "type": "string"
        },
        {
          "indexed": true,
          "internalType": "uint256",
          "name": "id",
          "type": "uint256"
        }
      ],
      "name": "URI",
      "type": "event"
    },
    {
      "inputs": [],
      "name": "CONTRACT",
      "outputs": [
        {
          "internalType": "uint256",
          "name": "",
          "type": "uint256"
        }
      ],
      "stateMutability": "view",
      "type": "function"
    },
    {
      "inputs": [
        {
          "internalType": "address",
          "name": "account",
          "type": "address"
        },
        {
          "internalType": "uint256",
          "name": "id",
          "type": "uint256"
        }
      ],
      "name": "balanceOf",
      "outputs": [
        {
          "internalType": "uint256",
          "name": "",
          "type": "uint256"
        }
      ],
      "stateMutability": "view",
      "type": "function"
    },
    {
      "inputs": [
        {
          "internalType": "address[]",
          "name": "accounts",
          "type": "address[]"
        },
        {
          "internalType": "uint256[]",
          "name": "ids",
          "type": "uint256[]"
        }
      ],
      "name": "balanceOfBatch",
      "outputs": [
        {
          "internalType": "uint256[]",
          "name": "",
          "type": "uint256[]"
        }
      ],
      "stateMutability": "view",
      "type": "function"
    },
    {
      "inputs": [],
      "name": "contract_address",
      "outputs": [
        {
          "internalType": "address",
          "name": "",
          "type": "address"
        }
      ],
      "stateMutability": "view",
      "type": "function"
    },
    {
      "inputs": [
        {
          "internalType": "uint256",
          "name": "",
          "type": "uint256"
        }
      ],
      "name": "founders",
      "outputs": [
        {
          "internalType": "address",
          "name": "",
          "type": "address"
        }
      ],
      "stateMutability": "view",
      "type": "function"
    },
    {
      "inputs": [
        {
          "internalType": "address",
          "name": "account",
          "type": "address"
        },
        {
          "internalType": "address",
          "name": "operator",
          "type": "address"
        }
      ],
      "name": "isApprovedForAll",
      "outputs": [
        {
          "internalType": "bool",
          "name": "",
          "type": "bool"
        }
      ],
      "stateMutability": "view",
      "type": "function"
    },
    {
      "inputs": [],
      "name": "num_shares",
      "outputs": [
        {
          "internalType": "uint256",
          "name": "",
          "type": "uint256"
        }
      ],
      "stateMutability": "view",
      "type": "function"
    },
    {
      "inputs": [
        {
          "internalType": "address",
          "name": "from",
          "type": "address"
        },
        {
          "internalType": "address",
          "name": "to",
          "type": "address"
        },
        {
          "internalType": "uint256[]",
          "name": "ids",
          "type": "uint256[]"
        },
        {
          "internalType": "uint256[]",
          "name": "amounts",
          "type": "uint256[]"
        },
        {
          "internalType": "bytes",
          "name": "data",
          "type": "bytes"
        }
      ],
      "name": "safeBatchTransferFrom",
      "outputs": [],
      "stateMutability": "nonpayable",
      "type": "function"
    },
    {
      "inputs": [
        {
          "internalType": "address",
          "name": "from",
          "type": "address"
        },
        {
          "internalType": "address",
          "name": "to",
          "type": "address"
        },
        {
          "internalType": "uint256",
          "name": "id",
          "type": "uint256"
        },
        {
          "internalType": "uint256",
          "name": "amount",
          "type": "uint256"
        },
        {
          "internalType": "bytes",
          "name": "data",
          "type": "bytes"
        }
      ],
      "name": "safeTransferFrom",
      "outputs": [],
      "stateMutability": "nonpayable",
      "type": "function"
    },
    {
      "inputs": [
        {
          "internalType": "address",
          "name": "operator",
          "type": "address"
        },
        {
          "internalType": "bool",
          "name": "approved",
          "type": "bool"
        }
      ],
      "name": "setApprovalForAll",
      "outputs": [],
      "stateMutability": "nonpayable",
      "type": "function"
    },
    {
      "inputs": [
        {
          "internalType": "bytes4",
          "name": "interfaceId",
          "type": "bytes4"
        }
      ],
      "name": "supportsInterface",
      "outputs": [
        {
          "internalType": "bool",
          "name": "",
          "type": "bool"
        }
      ],
      "stateMutability": "view",
      "type": "function"
    },
    {
      "inputs": [
        {
          "internalType": "uint256",
          "name": "",
          "type": "uint256"
        }
      ],
      "name": "uri",
      "outputs": [
        {
          "internalType": "string",
          "name": "",
          "type": "string"
        }
      ],
      "stateMutability": "view",
      "type": "function"
    },
    {
      "inputs": [
        {
          "internalType": "uint256",
          "name": "amt",
          "type": "uint256"
        }
      ],
      "name": "mintShares",
      "outputs": [],
      "stateMutability": "nonpayable",
      "type": "function"
    },
    {
      "inputs": [
        {
          "internalType": "uint256",
          "name": "amt",
          "type": "uint256"
        }
      ],
      "name": "burnShares",
      "outputs": [],
      "stateMutability": "nonpayable",
      "type": "function"
    },
    {
      "inputs": [
        {
          "internalType": "uint256",
          "name": "newAmount",
          "type": "uint256"
        }
      ],
      "name": "reissueShares",
      "outputs": [],
      "stateMutability": "nonpayable",
      "type": "function"
    },
    {
      "inputs": [],
      "name": "getNumShares",
      "outputs": [
        {
          "internalType": "uint256",
          "name": "",
          "type": "uint256"
        }
      ],
      "stateMutability": "view",
      "type": "function"
    },
    {
      "inputs": [],
      "name": "incrementTestVariable",
      "outputs": [],
      "stateMutability": "nonpayable",
      "type": "function"
    },
    {
      "inputs": [],
      "name": "readTestVariable",
      "outputs": [
        {
          "internalType": "uint256",
          "name": "",
          "type": "uint256"
        }
      ],
      "stateMutability": "view",
      "type": "function"
    },
    {
      "inputs": [
        {
          "internalType": "address",
          "name": "operator",
          "type": "address"
        },
        {
          "internalType": "address",
          "name": "from",
          "type": "address"
        },
        {
          "internalType": "uint256",
          "name": "id",
          "type": "uint256"
        },
        {
          "internalType": "uint256",
          "name": "value",
          "type": "uint256"
        },
        {
          "internalType": "bytes",
          "name": "data",
          "type": "bytes"
        }
      ],
      "name": "onERC1155Received",
      "outputs": [
        {
          "internalType": "bytes4",
          "name": "",
          "type": "bytes4"
        }
      ],
      "stateMutability": "nonpayable",
      "type": "function"
    },
    {
      "inputs": [
        {
          "internalType": "address",
          "name": "operator",
          "type": "address"
        },
        {
          "internalType": "address",
          "name": "from",
          "type": "address"
        },
        {
          "internalType": "uint256[]",
          "name": "ids",
          "type": "uint256[]"
        },
        {
          "internalType": "uint256[]",
          "name": "values",
          "type": "uint256[]"
        },
        {
          "internalType": "bytes",
          "name": "data",
          "type": "bytes"
        }
      ],
      "name": "onERC1155BatchReceived",
      "outputs": [
        {
          "internalType": "bytes4",
          "name": "",
          "type": "bytes4"
        }
      ],
      "stateMutability": "nonpayable",
      "type": "function"
    }
  ],
  "bytecode": "0x608060405260006009553480156200001657600080fd5b50604051620048383803806200483883398181016040528101906200003c919062000b1d565b6040518060800160405280605d8152602001620047db605d91396200006781620002d660201b60201c565b506000825111620000af576040517f08c379a0000000000000000000000000000000000000000000000000000000008152600401620000a69062000c3e565b60405180910390fd5b30600860006101000a81548173ffffffffffffffffffffffffffffffffffffffff021916908373ffffffffffffffffffffffffffffffffffffffff16021790555082600390805190602001906200010892919062000755565b50426004819055508060058190555060005b8251811015620002a85760008382815181106200013c576200013b62000c60565b5b60200260200101519050600760008273ffffffffffffffffffffffffffffffffffffffff1673ffffffffffffffffffffffffffffffffffffffff16815260200190815260200160002060009054906101000a900460ff1615620001d6576040517f08c379a0000000000000000000000000000000000000000000000000000000008152600401620001cd9062000cdf565b60405180910390fd5b6001600760008373ffffffffffffffffffffffffffffffffffffffff1673ffffffffffffffffffffffffffffffffffffffff16815260200190815260200160002060006101000a81548160ff0219169083151502179055506006819080600181540180825580915050600190039060005260206000200160009091909190916101000a81548173ffffffffffffffffffffffffffffffffffffffff021916908373ffffffffffffffffffffffffffffffffffffffff1602179055505080806200029f9062000d30565b9150506200011a565b50620002cd3060018360405180602001604052806000815250620002f260201b60201c565b505050620012eb565b8060029080519060200190620002ee92919062000755565b5050565b600073ffffffffffffffffffffffffffffffffffffffff168473ffffffffffffffffffffffffffffffffffffffff16141562000365576040517f08c379a00000000000000000000000000000000000000000000000000000000081526004016200035c9062000df4565b60405180910390fd5b600062000377620004b760201b60201c565b9050620003b0816000876200039288620004bf60201b60201c565b620003a388620004bf60201b60201c565b876200054060201b60201c565b8260008086815260200190815260200160002060008773ffffffffffffffffffffffffffffffffffffffff1673ffffffffffffffffffffffffffffffffffffffff168152602001908152602001600020600082825462000411919062000e16565b925050819055508473ffffffffffffffffffffffffffffffffffffffff16600073ffffffffffffffffffffffffffffffffffffffff168273ffffffffffffffffffffffffffffffffffffffff167fc3d58168c5ae7397731d063d5bbf3d657854427343f4c083240f7aacaa2d0f6287876040516200049192919062000e84565b60405180910390a4620004b0816000878787876200054860201b60201c565b5050505050565b600033905090565b60606000600167ffffffffffffffff811115620004e157620004e062000834565b5b604051908082528060200260200182016040528015620005105781602001602082028036833780820191505090505b50905082816000815181106200052b576200052a62000c60565b5b60200260200101818152505080915050919050565b505050505050565b620005748473ffffffffffffffffffffffffffffffffffffffff166200074260201b62000dd71760201c565b156200073a578373ffffffffffffffffffffffffffffffffffffffff1663f23a6e6187878686866040518663ffffffff1660e01b8152600401620005bd95949392919062000f1f565b6020604051808303816000875af1925050508015620005fc57506040513d601f19601f82011682018060405250810190620005f9919062000fe0565b60015b620006ae576200060b6200101f565b806308c379a014156200066f57506200062362001044565b8062000630575062000671565b806040517f08c379a000000000000000000000000000000000000000000000000000000000815260040162000666919062001132565b60405180910390fd5b505b6040517f08c379a0000000000000000000000000000000000000000000000000000000008152600401620006a590620011cc565b60405180910390fd5b63f23a6e6160e01b7bffffffffffffffffffffffffffffffffffffffffffffffffffffffff1916817bffffffffffffffffffffffffffffffffffffffffffffffffffffffff19161462000738576040517f08c379a00000000000000000000000000000000000000000000000000000000081526004016200072f9062001264565b60405180910390fd5b505b505050505050565b600080823b905060008111915050919050565b8280546200076390620012b5565b90600052602060002090601f016020900481019282620007875760008555620007d3565b82601f10620007a257805160ff1916838001178555620007d3565b82800160010185558215620007d3579182015b82811115620007d2578251825591602001919060010190620007b5565b5b509050620007e29190620007e6565b5090565b5b8082111562000801576000816000905550600101620007e7565b5090565b6000604051905090565b600080fd5b600080fd5b600080fd5b600080fd5b6000601f19601f8301169050919050565b7f4e487b7100000000000000000000000000000000000000000000000000000000600052604160045260246000fd5b6200086e8262000823565b810181811067ffffffffffffffff8211171562000890576200088f62000834565b5b80604052505050565b6000620008a562000805565b9050620008b3828262000863565b919050565b600067ffffffffffffffff821115620008d657620008d562000834565b5b620008e18262000823565b9050602081019050919050565b60005b838110156200090e578082015181840152602081019050620008f1565b838111156200091e576000848401525b50505050565b60006200093b6200093584620008b8565b62000899565b9050828152602081018484840111156200095a57620009596200081e565b5b62000967848285620008ee565b509392505050565b600082601f83011262000987576200098662000819565b5b81516200099984826020860162000924565b91505092915050565b600067ffffffffffffffff821115620009c057620009bf62000834565b5b602082029050602081019050919050565b600080fd5b600073ffffffffffffffffffffffffffffffffffffffff82169050919050565b600062000a0382620009d6565b9050919050565b62000a1581620009f6565b811462000a2157600080fd5b50565b60008151905062000a358162000a0a565b92915050565b600062000a5262000a4c84620009a2565b62000899565b9050808382526020820190506020840283018581111562000a785762000a77620009d1565b5b835b8181101562000aa5578062000a90888262000a24565b84526020840193505060208101905062000a7a565b5050509392505050565b600082601f83011262000ac75762000ac662000819565b5b815162000ad984826020860162000a3b565b91505092915050565b6000819050919050565b62000af78162000ae2565b811462000b0357600080fd5b50565b60008151905062000b178162000aec565b92915050565b60008060006060848603121562000b395762000b386200080f565b5b600084015167ffffffffffffffff81111562000b5a5762000b5962000814565b5b62000b68868287016200096f565b935050602084015167ffffffffffffffff81111562000b8c5762000b8b62000814565b5b62000b9a8682870162000aaf565b925050604062000bad8682870162000b06565b9150509250925092565b600082825260208201905092915050565b7f4e756d626572206f66206f776e657273206d757374206265206e6f6e2d7a657260008201527f6f00000000000000000000000000000000000000000000000000000000000000602082015250565b600062000c2660218362000bb7565b915062000c338262000bc8565b604082019050919050565b6000602082019050818103600083015262000c598162000c17565b9050919050565b7f4e487b7100000000000000000000000000000000000000000000000000000000600052603260045260246000fd5b7f4e6f7420756e6971756520666f756e6465720000000000000000000000000000600082015250565b600062000cc760128362000bb7565b915062000cd48262000c8f565b602082019050919050565b6000602082019050818103600083015262000cfa8162000cb8565b9050919050565b7f4e487b7100000000000000000000000000000000000000000000000000000000600052601160045260246000fd5b600062000d3d8262000ae2565b91507fffffffffffffffffffffffffffffffffffffffffffffffffffffffffffffffff82141562000d735762000d7262000d01565b5b600182019050919050565b7f455243313135353a206d696e7420746f20746865207a65726f2061646472657360008201527f7300000000000000000000000000000000000000000000000000000000000000602082015250565b600062000ddc60218362000bb7565b915062000de98262000d7e565b604082019050919050565b6000602082019050818103600083015262000e0f8162000dcd565b9050919050565b600062000e238262000ae2565b915062000e308362000ae2565b9250827fffffffffffffffffffffffffffffffffffffffffffffffffffffffffffffffff0382111562000e685762000e6762000d01565b5b828201905092915050565b62000e7e8162000ae2565b82525050565b600060408201905062000e9b600083018562000e73565b62000eaa602083018462000e73565b9392505050565b62000ebc81620009f6565b82525050565b600081519050919050565b600082825260208201905092915050565b600062000eeb8262000ec2565b62000ef7818562000ecd565b935062000f09818560208601620008ee565b62000f148162000823565b840191505092915050565b600060a08201905062000f36600083018862000eb1565b62000f45602083018762000eb1565b62000f54604083018662000e73565b62000f63606083018562000e73565b818103608083015262000f77818462000ede565b90509695505050505050565b60007fffffffff0000000000000000000000000000000000000000000000000000000082169050919050565b62000fba8162000f83565b811462000fc657600080fd5b50565b60008151905062000fda8162000faf565b92915050565b60006020828403121562000ff95762000ff86200080f565b5b6000620010098482850162000fc9565b91505092915050565b60008160e01c9050919050565b600060033d1115620010415760046000803e6200103e60005162001012565b90505b90565b600060443d10156200105657620010e3565b6200106062000805565b60043d036004823e80513d602482011167ffffffffffffffff821117156200108a575050620010e3565b808201805167ffffffffffffffff811115620010aa5750505050620010e3565b80602083010160043d038501811115620010c9575050505050620010e3565b620010da8260200185018662000863565b82955050505050505b90565b600081519050919050565b6000620010fe82620010e6565b6200110a818562000bb7565b93506200111c818560208601620008ee565b620011278162000823565b840191505092915050565b600060208201905081810360008301526200114e8184620010f1565b905092915050565b7f455243313135353a207472616e7366657220746f206e6f6e204552433131353560008201527f526563656976657220696d706c656d656e746572000000000000000000000000602082015250565b6000620011b460348362000bb7565b9150620011c18262001156565b604082019050919050565b60006020820190508181036000830152620011e781620011a5565b9050919050565b7f455243313135353a204552433131353552656365697665722072656a6563746560008201527f6420746f6b656e73000000000000000000000000000000000000000000000000602082015250565b60006200124c60288362000bb7565b91506200125982620011ee565b604082019050919050565b600060208201905081810360008301526200127f816200123d565b9050919050565b7f4e487b7100000000000000000000000000000000000000000000000000000000600052602260045260246000fd5b60006002820490506001821680620012ce57607f821691505b60208210811415620012e557620012e462001286565b5b50919050565b6134e080620012fb6000396000f3fe608060405234801561001057600080fd5b506004361061012b5760003560e01c80638ce65d74116100ad578063d8e75f6211610071578063d8e75f621461032e578063e985e9c51461035e578063f23a6e611461038e578063f242432a146103be578063fc833ac6146103da5761012b565b80638ce65d741461028c578063966b3514146102a8578063a22cb465146102c6578063b1aa90a1146102e2578063bc197c81146102fe5761012b565b8063436c595e116100f4578063436c595e146101fa5780634e1273f41461020457806374f894d4146102345780637a5c79ff14610252578063853c637d146102705761012b565b8062fdd58e1461013057806301ffc9a7146101605780630e89341c1461019057806315b8faf2146101c05780632eb2c2d6146101de575b600080fd5b61014a60048036038101906101459190611dec565b6103f8565b6040516101579190611e3b565b60405180910390f35b61017a60048036038101906101759190611eae565b6104c1565b6040516101879190611ef6565b60405180910390f35b6101aa60048036038101906101a59190611f11565b6105a3565b6040516101b79190611fd7565b60405180910390f35b6101c8610637565b6040516101d59190611e3b565b60405180910390f35b6101f860048036038101906101f391906121f6565b610641565b005b6102026106e2565b005b61021e60048036038101906102199190612388565b6107c7565b60405161022b91906124be565b60405180910390f35b61023c6108e0565b6040516102499190611e3b565b60405180910390f35b61025a6108ea565b6040516102679190611e3b565b60405180910390f35b61028a60048036038101906102859190611f11565b6108f0565b005b6102a660048036038101906102a19190611f11565b6109e1565b005b6102b0610ac1565b6040516102bd91906124ef565b60405180910390f35b6102e060048036038101906102db9190612536565b610ae7565b005b6102fc60048036038101906102f79190611f11565b610afd565b005b61031860048036038101906103139190612627565b610bfe565b6040516103259190612712565b60405180910390f35b61034860048036038101906103439190611f11565b610c2f565b60405161035591906124ef565b60405180910390f35b6103786004803603810190610373919061272d565b610c6e565b6040516103859190611ef6565b60405180910390f35b6103a860048036038101906103a3919061276d565b610d02565b6040516103b59190612712565b60405180910390f35b6103d860048036038101906103d39190612807565b610d31565b005b6103e2610dd2565b6040516103ef9190611e3b565b60405180910390f35b60008073ffffffffffffffffffffffffffffffffffffffff168373ffffffffffffffffffffffffffffffffffffffff161415610469576040517f08c379a000000000000000000000000000000000000000000000000000000000815260040161046090612910565b60405180910390fd5b60008083815260200190815260200160002060008473ffffffffffffffffffffffffffffffffffffffff1673ffffffffffffffffffffffffffffffffffffffff16815260200190815260200160002054905092915050565b60007fd9b67a26000000000000000000000000000000000000000000000000000000007bffffffffffffffffffffffffffffffffffffffffffffffffffffffff1916827bffffffffffffffffffffffffffffffffffffffffffffffffffffffff1916148061058c57507f0e89341c000000000000000000000000000000000000000000000000000000007bffffffffffffffffffffffffffffffffffffffffffffffffffffffff1916827bffffffffffffffffffffffffffffffffffffffffffffffffffffffff1916145b8061059c575061059b82610dea565b5b9050919050565b6060600280546105b29061295f565b80601f01602080910402602001604051908101604052809291908181526020018280546105de9061295f565b801561062b5780601f106106005761010080835404028352916020019161062b565b820191906000526020600020905b81548152906001019060200180831161060e57829003601f168201915b50505050509050919050565b6000600554905090565b610649610e54565b73ffffffffffffffffffffffffffffffffffffffff168573ffffffffffffffffffffffffffffffffffffffff16148061068f575061068e85610689610e54565b610c6e565b5b6106ce576040517f08c379a00000000000000000000000000000000000000000000000000000000081526004016106c590612a03565b60405180910390fd5b6106db8585858585610e5c565b5050505050565b60011515600760003373ffffffffffffffffffffffffffffffffffffffff1673ffffffffffffffffffffffffffffffffffffffff16815260200190815260200160002060009054906101000a900460ff161515148061076c57503073ffffffffffffffffffffffffffffffffffffffff163373ffffffffffffffffffffffffffffffffffffffff16145b6107ab576040517f08c379a00000000000000000000000000000000000000000000000000000000081526004016107a290612a95565b60405180910390fd5b6001600960008282546107be9190612ae4565b92505081905550565b6060815183511461080d576040517f08c379a000000000000000000000000000000000000000000000000000000000815260040161080490612bac565b60405180910390fd5b6000835167ffffffffffffffff81111561082a57610829611ffe565b5b6040519080825280602002602001820160405280156108585781602001602082028036833780820191505090505b50905060005b84518110156108d5576108a585828151811061087d5761087c612bcc565b5b602002602001015185838151811061089857610897612bcc565b5b60200260200101516103f8565b8282815181106108b8576108b7612bcc565b5b602002602001018181525050806108ce90612bfb565b905061085e565b508091505092915050565b6000600954905090565b60055481565b60011515600760003373ffffffffffffffffffffffffffffffffffffffff1673ffffffffffffffffffffffffffffffffffffffff16815260200190815260200160002060009054906101000a900460ff161515148061097a57503073ffffffffffffffffffffffffffffffffffffffff163373ffffffffffffffffffffffffffffffffffffffff16145b6109b9576040517f08c379a00000000000000000000000000000000000000000000000000000000081526004016109b090612a95565b60405180910390fd5b6109c530600183611170565b80600560008282546109d79190612c44565b9250508190555050565b60011515600760003373ffffffffffffffffffffffffffffffffffffffff1673ffffffffffffffffffffffffffffffffffffffff16815260200190815260200160002060009054906101000a900460ff1615151480610a6b57503073ffffffffffffffffffffffffffffffffffffffff163373ffffffffffffffffffffffffffffffffffffffff16145b610aaa576040517f08c379a0000000000000000000000000000000000000000000000000000000008152600401610aa190612a95565b60405180910390fd5b610ab56005546108f0565b610abe81610afd565b50565b600860009054906101000a900473ffffffffffffffffffffffffffffffffffffffff1681565b610af9610af2610e54565b838361138d565b5050565b60011515600760003373ffffffffffffffffffffffffffffffffffffffff1673ffffffffffffffffffffffffffffffffffffffff16815260200190815260200160002060009054906101000a900460ff1615151480610b8757503073ffffffffffffffffffffffffffffffffffffffff163373ffffffffffffffffffffffffffffffffffffffff16145b610bc6576040517f08c379a0000000000000000000000000000000000000000000000000000000008152600401610bbd90612a95565b60405180910390fd5b610be230600183604051806020016040528060008152506114fa565b8060056000828254610bf49190612ae4565b9250508190555050565b60007fbc197c819b3e337a6f9652dd10becd7eef83032af3b9d958d3d42f6694146621905098975050505050505050565b60068181548110610c3f57600080fd5b906000526020600020016000915054906101000a900473ffffffffffffffffffffffffffffffffffffffff1681565b6000600160008473ffffffffffffffffffffffffffffffffffffffff1673ffffffffffffffffffffffffffffffffffffffff16815260200190815260200160002060008373ffffffffffffffffffffffffffffffffffffffff1673ffffffffffffffffffffffffffffffffffffffff16815260200190815260200160002060009054906101000a900460ff16905092915050565b60007ff23a6e612e1ff4830e658fe43f4e3cb4a5f8170bd5d9e69fb5d7a7fa9e4fdf9790509695505050505050565b610d39610e54565b73ffffffffffffffffffffffffffffffffffffffff168573ffffffffffffffffffffffffffffffffffffffff161480610d7f5750610d7e85610d79610e54565b610c6e565b5b610dbe576040517f08c379a0000000000000000000000000000000000000000000000000000000008152600401610db590612cea565b60405180910390fd5b610dcb8585858585611690565b5050505050565b600181565b600080823b905060008111915050919050565b60007f01ffc9a7000000000000000000000000000000000000000000000000000000007bffffffffffffffffffffffffffffffffffffffffffffffffffffffff1916827bffffffffffffffffffffffffffffffffffffffffffffffffffffffff1916149050919050565b600033905090565b8151835114610ea0576040517f08c379a0000000000000000000000000000000000000000000000000000000008152600401610e9790612d7c565b60405180910390fd5b600073ffffffffffffffffffffffffffffffffffffffff168473ffffffffffffffffffffffffffffffffffffffff161415610f10576040517f08c379a0000000000000000000000000000000000000000000000000000000008152600401610f0790612e0e565b60405180910390fd5b6000610f1a610e54565b9050610f2a818787878787611912565b60005b84518110156110db576000858281518110610f4b57610f4a612bcc565b5b602002602001015190506000858381518110610f6a57610f69612bcc565b5b60200260200101519050600080600084815260200190815260200160002060008b73ffffffffffffffffffffffffffffffffffffffff1673ffffffffffffffffffffffffffffffffffffffff1681526020019081526020016000205490508181101561100b576040517f08c379a000000000000000000000000000000000000000000000000000000000815260040161100290612ea0565b60405180910390fd5b81810360008085815260200190815260200160002060008c73ffffffffffffffffffffffffffffffffffffffff1673ffffffffffffffffffffffffffffffffffffffff168152602001908152602001600020819055508160008085815260200190815260200160002060008b73ffffffffffffffffffffffffffffffffffffffff1673ffffffffffffffffffffffffffffffffffffffff16815260200190815260200160002060008282546110c09190612ae4565b92505081905550505050806110d490612bfb565b9050610f2d565b508473ffffffffffffffffffffffffffffffffffffffff168673ffffffffffffffffffffffffffffffffffffffff168273ffffffffffffffffffffffffffffffffffffffff167f4a39dc06d4c0dbc64b70af90fd698a233a518aa5d07e595d983b8c0526c8f7fb8787604051611152929190612ec0565b60405180910390a461116881878787878761191a565b505050505050565b600073ffffffffffffffffffffffffffffffffffffffff168373ffffffffffffffffffffffffffffffffffffffff1614156111e0576040517f08c379a00000000000000000000000000000000000000000000000000000000081526004016111d790612f69565b60405180910390fd5b60006111ea610e54565b905061121a818560006111fc87611af2565b61120587611af2565b60405180602001604052806000815250611912565b600080600085815260200190815260200160002060008673ffffffffffffffffffffffffffffffffffffffff1673ffffffffffffffffffffffffffffffffffffffff168152602001908152602001600020549050828110156112b1576040517f08c379a00000000000000000000000000000000000000000000000000000000081526004016112a890612ffb565b60405180910390fd5b82810360008086815260200190815260200160002060008773ffffffffffffffffffffffffffffffffffffffff1673ffffffffffffffffffffffffffffffffffffffff16815260200190815260200160002081905550600073ffffffffffffffffffffffffffffffffffffffff168573ffffffffffffffffffffffffffffffffffffffff168373ffffffffffffffffffffffffffffffffffffffff167fc3d58168c5ae7397731d063d5bbf3d657854427343f4c083240f7aacaa2d0f62878760405161137e92919061301b565b60405180910390a45050505050565b8173ffffffffffffffffffffffffffffffffffffffff168373ffffffffffffffffffffffffffffffffffffffff1614156113fc576040517f08c379a00000000000000000000000000000000000000000000000000000000081526004016113f3906130b6565b60405180910390fd5b80600160008573ffffffffffffffffffffffffffffffffffffffff1673ffffffffffffffffffffffffffffffffffffffff16815260200190815260200160002060008473ffffffffffffffffffffffffffffffffffffffff1673ffffffffffffffffffffffffffffffffffffffff16815260200190815260200160002060006101000a81548160ff0219169083151502179055508173ffffffffffffffffffffffffffffffffffffffff168373ffffffffffffffffffffffffffffffffffffffff167f17307eab39ab6107e8899845ad3d59bd9653f200f220920489ca2b5937696c31836040516114ed9190611ef6565b60405180910390a3505050565b600073ffffffffffffffffffffffffffffffffffffffff168473ffffffffffffffffffffffffffffffffffffffff16141561156a576040517f08c379a000000000000000000000000000000000000000000000000000000000815260040161156190613148565b60405180910390fd5b6000611574610e54565b90506115958160008761158688611af2565b61158f88611af2565b87611912565b8260008086815260200190815260200160002060008773ffffffffffffffffffffffffffffffffffffffff1673ffffffffffffffffffffffffffffffffffffffff16815260200190815260200160002060008282546115f49190612ae4565b925050819055508473ffffffffffffffffffffffffffffffffffffffff16600073ffffffffffffffffffffffffffffffffffffffff168273ffffffffffffffffffffffffffffffffffffffff167fc3d58168c5ae7397731d063d5bbf3d657854427343f4c083240f7aacaa2d0f62878760405161167292919061301b565b60405180910390a461168981600087878787611b6c565b5050505050565b600073ffffffffffffffffffffffffffffffffffffffff168473ffffffffffffffffffffffffffffffffffffffff161415611700576040517f08c379a00000000000000000000000000000000000000000000000000000000081526004016116f790612e0e565b60405180910390fd5b600061170a610e54565b905061172a81878761171b88611af2565b61172488611af2565b87611912565b600080600086815260200190815260200160002060008873ffffffffffffffffffffffffffffffffffffffff1673ffffffffffffffffffffffffffffffffffffffff168152602001908152602001600020549050838110156117c1576040517f08c379a00000000000000000000000000000000000000000000000000000000081526004016117b890612ea0565b60405180910390fd5b83810360008087815260200190815260200160002060008973ffffffffffffffffffffffffffffffffffffffff1673ffffffffffffffffffffffffffffffffffffffff168152602001908152602001600020819055508360008087815260200190815260200160002060008873ffffffffffffffffffffffffffffffffffffffff1673ffffffffffffffffffffffffffffffffffffffff16815260200190815260200160002060008282546118769190612ae4565b925050819055508573ffffffffffffffffffffffffffffffffffffffff168773ffffffffffffffffffffffffffffffffffffffff168373ffffffffffffffffffffffffffffffffffffffff167fc3d58168c5ae7397731d063d5bbf3d657854427343f4c083240f7aacaa2d0f6288886040516118f392919061301b565b60405180910390a4611909828888888888611b6c565b50505050505050565b505050505050565b6119398473ffffffffffffffffffffffffffffffffffffffff16610dd7565b15611aea578373ffffffffffffffffffffffffffffffffffffffff1663bc197c8187878686866040518663ffffffff1660e01b815260040161197f9594939291906131bd565b6020604051808303816000875af19250505080156119bb57506040513d601f19601f820116820180604052508101906119b8919061323a565b60015b611a61576119c7613274565b806308c379a01415611a2457506119dc613296565b806119e75750611a26565b806040517f08c379a0000000000000000000000000000000000000000000000000000000008152600401611a1b9190611fd7565b60405180910390fd5b505b6040517f08c379a0000000000000000000000000000000000000000000000000000000008152600401611a589061339e565b60405180910390fd5b63bc197c8160e01b7bffffffffffffffffffffffffffffffffffffffffffffffffffffffff1916817bffffffffffffffffffffffffffffffffffffffffffffffffffffffff191614611ae8576040517f08c379a0000000000000000000000000000000000000000000000000000000008152600401611adf90613430565b60405180910390fd5b505b505050505050565b60606000600167ffffffffffffffff811115611b1157611b10611ffe565b5b604051908082528060200260200182016040528015611b3f5781602001602082028036833780820191505090505b5090508281600081518110611b5757611b56612bcc565b5b60200260200101818152505080915050919050565b611b8b8473ffffffffffffffffffffffffffffffffffffffff16610dd7565b15611d3c578373ffffffffffffffffffffffffffffffffffffffff1663f23a6e6187878686866040518663ffffffff1660e01b8152600401611bd1959493929190613450565b6020604051808303816000875af1925050508015611c0d57506040513d601f19601f82011682018060405250810190611c0a919061323a565b60015b611cb357611c19613274565b806308c379a01415611c765750611c2e613296565b80611c395750611c78565b806040517f08c379a0000000000000000000000000000000000000000000000000000000008152600401611c6d9190611fd7565b60405180910390fd5b505b6040517f08c379a0000000000000000000000000000000000000000000000000000000008152600401611caa9061339e565b60405180910390fd5b63f23a6e6160e01b7bffffffffffffffffffffffffffffffffffffffffffffffffffffffff1916817bffffffffffffffffffffffffffffffffffffffffffffffffffffffff191614611d3a576040517f08c379a0000000000000000000000000000000000000000000000000000000008152600401611d3190613430565b60405180910390fd5b505b505050505050565b6000604051905090565b600080fd5b600080fd5b600073ffffffffffffffffffffffffffffffffffffffff82169050919050565b6000611d8382611d58565b9050919050565b611d9381611d78565b8114611d9e57600080fd5b50565b600081359050611db081611d8a565b92915050565b6000819050919050565b611dc981611db6565b8114611dd457600080fd5b50565b600081359050611de681611dc0565b92915050565b60008060408385031215611e0357611e02611d4e565b5b6000611e1185828601611da1565b9250506020611e2285828601611dd7565b9150509250929050565b611e3581611db6565b82525050565b6000602082019050611e506000830184611e2c565b92915050565b60007fffffffff0000000000000000000000000000000000000000000000000000000082169050919050565b611e8b81611e56565b8114611e9657600080fd5b50565b600081359050611ea881611e82565b92915050565b600060208284031215611ec457611ec3611d4e565b5b6000611ed284828501611e99565b91505092915050565b60008115159050919050565b611ef081611edb565b82525050565b6000602082019050611f0b6000830184611ee7565b92915050565b600060208284031215611f2757611f26611d4e565b5b6000611f3584828501611dd7565b91505092915050565b600081519050919050565b600082825260208201905092915050565b60005b83811015611f78578082015181840152602081019050611f5d565b83811115611f87576000848401525b50505050565b6000601f19601f8301169050919050565b6000611fa982611f3e565b611fb38185611f49565b9350611fc3818560208601611f5a565b611fcc81611f8d565b840191505092915050565b60006020820190508181036000830152611ff18184611f9e565b905092915050565b600080fd5b7f4e487b7100000000000000000000000000000000000000000000000000000000600052604160045260246000fd5b61203682611f8d565b810181811067ffffffffffffffff8211171561205557612054611ffe565b5b80604052505050565b6000612068611d44565b9050612074828261202d565b919050565b600067ffffffffffffffff82111561209457612093611ffe565b5b602082029050602081019050919050565b600080fd5b60006120bd6120b884612079565b61205e565b905080838252602082019050602084028301858111156120e0576120df6120a5565b5b835b8181101561210957806120f58882611dd7565b8452602084019350506020810190506120e2565b5050509392505050565b600082601f83011261212857612127611ff9565b5b81356121388482602086016120aa565b91505092915050565b600080fd5b600067ffffffffffffffff82111561216157612160611ffe565b5b61216a82611f8d565b9050602081019050919050565b82818337600083830152505050565b600061219961219484612146565b61205e565b9050828152602081018484840111156121b5576121b4612141565b5b6121c0848285612177565b509392505050565b600082601f8301126121dd576121dc611ff9565b5b81356121ed848260208601612186565b91505092915050565b600080600080600060a0868803121561221257612211611d4e565b5b600061222088828901611da1565b955050602061223188828901611da1565b945050604086013567ffffffffffffffff81111561225257612251611d53565b5b61225e88828901612113565b935050606086013567ffffffffffffffff81111561227f5761227e611d53565b5b61228b88828901612113565b925050608086013567ffffffffffffffff8111156122ac576122ab611d53565b5b6122b8888289016121c8565b9150509295509295909350565b600067ffffffffffffffff8211156122e0576122df611ffe565b5b602082029050602081019050919050565b60006123046122ff846122c5565b61205e565b90508083825260208201905060208402830185811115612327576123266120a5565b5b835b81811015612350578061233c8882611da1565b845260208401935050602081019050612329565b5050509392505050565b600082601f83011261236f5761236e611ff9565b5b813561237f8482602086016122f1565b91505092915050565b6000806040838503121561239f5761239e611d4e565b5b600083013567ffffffffffffffff8111156123bd576123bc611d53565b5b6123c98582860161235a565b925050602083013567ffffffffffffffff8111156123ea576123e9611d53565b5b6123f685828601612113565b9150509250929050565b600081519050919050565b600082825260208201905092915050565b6000819050602082019050919050565b61243581611db6565b82525050565b6000612447838361242c565b60208301905092915050565b6000602082019050919050565b600061246b82612400565b612475818561240b565b93506124808361241c565b8060005b838110156124b1578151612498888261243b565b97506124a383612453565b925050600181019050612484565b5085935050505092915050565b600060208201905081810360008301526124d88184612460565b905092915050565b6124e981611d78565b82525050565b600060208201905061250460008301846124e0565b92915050565b61251381611edb565b811461251e57600080fd5b50565b6000813590506125308161250a565b92915050565b6000806040838503121561254d5761254c611d4e565b5b600061255b85828601611da1565b925050602061256c85828601612521565b9150509250929050565b600080fd5b60008083601f84011261259157612590611ff9565b5b8235905067ffffffffffffffff8111156125ae576125ad612576565b5b6020830191508360208202830111156125ca576125c96120a5565b5b9250929050565b60008083601f8401126125e7576125e6611ff9565b5b8235905067ffffffffffffffff81111561260457612603612576565b5b6020830191508360018202830111156126205761261f6120a5565b5b9250929050565b60008060008060008060008060a0898b03121561264757612646611d4e565b5b60006126558b828c01611da1565b98505060206126668b828c01611da1565b975050604089013567ffffffffffffffff81111561268757612686611d53565b5b6126938b828c0161257b565b9650965050606089013567ffffffffffffffff8111156126b6576126b5611d53565b5b6126c28b828c0161257b565b9450945050608089013567ffffffffffffffff8111156126e5576126e4611d53565b5b6126f18b828c016125d1565b92509250509295985092959890939650565b61270c81611e56565b82525050565b60006020820190506127276000830184612703565b92915050565b6000806040838503121561274457612743611d4e565b5b600061275285828601611da1565b925050602061276385828601611da1565b9150509250929050565b60008060008060008060a0878903121561278a57612789611d4e565b5b600061279889828a01611da1565b96505060206127a989828a01611da1565b95505060406127ba89828a01611dd7565b94505060606127cb89828a01611dd7565b935050608087013567ffffffffffffffff8111156127ec576127eb611d53565b5b6127f889828a016125d1565b92509250509295509295509295565b600080600080600060a0868803121561282357612822611d4e565b5b600061283188828901611da1565b955050602061284288828901611da1565b945050604061285388828901611dd7565b935050606061286488828901611dd7565b925050608086013567ffffffffffffffff81111561288557612884611d53565b5b612891888289016121c8565b9150509295509295909350565b7f455243313135353a2062616c616e636520717565727920666f7220746865207a60008201527f65726f2061646472657373000000000000000000000000000000000000000000602082015250565b60006128fa602b83611f49565b91506129058261289e565b604082019050919050565b60006020820190508181036000830152612929816128ed565b9050919050565b7f4e487b7100000000000000000000000000000000000000000000000000000000600052602260045260246000fd5b6000600282049050600182168061297757607f821691505b6020821081141561298b5761298a612930565b5b50919050565b7f455243313135353a207472616e736665722063616c6c6572206973206e6f742060008201527f6f776e6572206e6f7220617070726f7665640000000000000000000000000000602082015250565b60006129ed603283611f49565b91506129f882612991565b604082019050919050565b60006020820190508181036000830152612a1c816129e0565b9050919050565b7f66756e6374696f6e206f6e6c7920617661696c61626c6520746f20666f756e6460008201527f6572730000000000000000000000000000000000000000000000000000000000602082015250565b6000612a7f602383611f49565b9150612a8a82612a23565b604082019050919050565b60006020820190508181036000830152612aae81612a72565b9050919050565b7f4e487b7100000000000000000000000000000000000000000000000000000000600052601160045260246000fd5b6000612aef82611db6565b9150612afa83611db6565b9250827fffffffffffffffffffffffffffffffffffffffffffffffffffffffffffffffff03821115612b2f57612b2e612ab5565b5b828201905092915050565b7f455243313135353a206163636f756e747320616e6420696473206c656e67746860008201527f206d69736d617463680000000000000000000000000000000000000000000000602082015250565b6000612b96602983611f49565b9150612ba182612b3a565b604082019050919050565b60006020820190508181036000830152612bc581612b89565b9050919050565b7f4e487b7100000000000000000000000000000000000000000000000000000000600052603260045260246000fd5b6000612c0682611db6565b91507fffffffffffffffffffffffffffffffffffffffffffffffffffffffffffffffff821415612c3957612c38612ab5565b5b600182019050919050565b6000612c4f82611db6565b9150612c5a83611db6565b925082821015612c6d57612c6c612ab5565b5b828203905092915050565b7f455243313135353a2063616c6c6572206973206e6f74206f776e6572206e6f7260008201527f20617070726f7665640000000000000000000000000000000000000000000000602082015250565b6000612cd4602983611f49565b9150612cdf82612c78565b604082019050919050565b60006020820190508181036000830152612d0381612cc7565b9050919050565b7f455243313135353a2069647320616e6420616d6f756e7473206c656e6774682060008201527f6d69736d61746368000000000000000000000000000000000000000000000000602082015250565b6000612d66602883611f49565b9150612d7182612d0a565b604082019050919050565b60006020820190508181036000830152612d9581612d59565b9050919050565b7f455243313135353a207472616e7366657220746f20746865207a65726f20616460008201527f6472657373000000000000000000000000000000000000000000000000000000602082015250565b6000612df8602583611f49565b9150612e0382612d9c565b604082019050919050565b60006020820190508181036000830152612e2781612deb565b9050919050565b7f455243313135353a20696e73756666696369656e742062616c616e636520666f60008201527f72207472616e7366657200000000000000000000000000000000000000000000602082015250565b6000612e8a602a83611f49565b9150612e9582612e2e565b604082019050919050565b60006020820190508181036000830152612eb981612e7d565b9050919050565b60006040820190508181036000830152612eda8185612460565b90508181036020830152612eee8184612460565b90509392505050565b7f455243313135353a206275726e2066726f6d20746865207a65726f206164647260008201527f6573730000000000000000000000000000000000000000000000000000000000602082015250565b6000612f53602383611f49565b9150612f5e82612ef7565b604082019050919050565b60006020820190508181036000830152612f8281612f46565b9050919050565b7f455243313135353a206275726e20616d6f756e7420657863656564732062616c60008201527f616e636500000000000000000000000000000000000000000000000000000000602082015250565b6000612fe5602483611f49565b9150612ff082612f89565b604082019050919050565b6000602082019050818103600083015261301481612fd8565b9050919050565b60006040820190506130306000830185611e2c565b61303d6020830184611e2c565b9392505050565b7f455243313135353a2073657474696e6720617070726f76616c2073746174757360008201527f20666f722073656c660000000000000000000000000000000000000000000000602082015250565b60006130a0602983611f49565b91506130ab82613044565b604082019050919050565b600060208201905081810360008301526130cf81613093565b9050919050565b7f455243313135353a206d696e7420746f20746865207a65726f2061646472657360008201527f7300000000000000000000000000000000000000000000000000000000000000602082015250565b6000613132602183611f49565b915061313d826130d6565b604082019050919050565b6000602082019050818103600083015261316181613125565b9050919050565b600081519050919050565b600082825260208201905092915050565b600061318f82613168565b6131998185613173565b93506131a9818560208601611f5a565b6131b281611f8d565b840191505092915050565b600060a0820190506131d260008301886124e0565b6131df60208301876124e0565b81810360408301526131f18186612460565b905081810360608301526132058185612460565b905081810360808301526132198184613184565b90509695505050505050565b60008151905061323481611e82565b92915050565b6000602082840312156132505761324f611d4e565b5b600061325e84828501613225565b91505092915050565b60008160e01c9050919050565b600060033d11156132935760046000803e613290600051613267565b90505b90565b600060443d10156132a657613329565b6132ae611d44565b60043d036004823e80513d602482011167ffffffffffffffff821117156132d6575050613329565b808201805167ffffffffffffffff8111156132f45750505050613329565b80602083010160043d038501811115613311575050505050613329565b6133208260200185018661202d565b82955050505050505b90565b7f455243313135353a207472616e7366657220746f206e6f6e204552433131353560008201527f526563656976657220696d706c656d656e746572000000000000000000000000602082015250565b6000613388603483611f49565b91506133938261332c565b604082019050919050565b600060208201905081810360008301526133b78161337b565b9050919050565b7f455243313135353a204552433131353552656365697665722072656a6563746560008201527f6420746f6b656e73000000000000000000000000000000000000000000000000602082015250565b600061341a602883611f49565b9150613425826133be565b604082019050919050565b600060208201905081810360008301526134498161340d565b9050919050565b600060a08201905061346560008301886124e0565b61347260208301876124e0565b61347f6040830186611e2c565b61348c6060830185611e2c565b818103608083015261349e8184613184565b9050969550505050505056fea264697066735822122093ff3ef284b97bb82e8fa05ebd3bfda49b6253f2e04c7c81c3ab3c330077ef9464736f6c634300080b003368747470733a2f2f697066732e696f2f697066732f516d595a716b794472714c4b346f7756795147477333704731716851586a4e56375172396a566e33396f774d6d653f66696c656e616d653d63657274696669636174652e6a736f6e",
  "immutableReferences": {},
  "source": "// SPDX-License-Identifier: MIT\r\n\r\npragma solidity ^0.8.0;\r\n\r\nimport \"../node_modules/@openzeppelin/contracts/token/ERC1155/ERC1155.sol\";\r\nimport \"../node_modules/@openzeppelin/contracts/token/ERC1155/IERC1155Receiver.sol\";\r\n\r\ncontract CompanyContract is ERC1155, IERC1155Receiver {\r\n    string company_name;\r\n    uint256 founding_date;\r\n    uint256 public num_shares;\r\n    address[] public founders;\r\n    mapping(address => bool) is_founder;\r\n    address public contract_address;\r\n    address constant burn_address = 0x000000000000000000000000000000000000dEaD;\r\n    uint256 test_variable = 0;\r\n\r\n    uint256 public constant CONTRACT = 1;\r\n\r\n    modifier onlyFounders() {\r\n        require(\r\n            is_founder[msg.sender] == true || msg.sender == address(this),\r\n            \"function only available to founders\"\r\n        );\r\n\r\n        _;\r\n    }\r\n\r\n    constructor(\r\n        string memory company_name_,\r\n        address[] memory founders_,\r\n        uint256 num_shares_\r\n    )\r\n        public\r\n        ERC1155(\r\n            \"https://ipfs.io/ipfs/QmYZqkyDrqLK4owVyQGGs3pG1qhQXjNV7Qr9jVn39owMme?filename=certificate.json\"\r\n        )\r\n    {\r\n        require(founders_.length > 0, \"Number of owners must be non-zero\");\r\n\r\n        contract_address = address(this);\r\n        company_name = company_name_;\r\n        founding_date = block.timestamp;\r\n        num_shares = num_shares_;\r\n\r\n        for (uint256 i = 0; i < founders_.length; i++) {\r\n            address founder = founders_[i];\r\n\r\n            require(!is_founder[founder], \"Not unique founder\");\r\n\r\n            is_founder[founder] = true;\r\n            founders.push(founder);\r\n        }\r\n\r\n        _mint(address(this), CONTRACT, num_shares_, \"\");\r\n    }\r\n\r\n    function mintShares(uint256 amt) public onlyFounders {\r\n        _mint(address(this), CONTRACT, amt, \"\");\r\n\r\n        num_shares += amt;\r\n    }\r\n\r\n    function burnShares(uint256 amt) public onlyFounders {\r\n        // safeTransferFrom(address(this), burn_address, CONTRACT, amt, \"\");\r\n        _burn(address(this), CONTRACT, amt);\r\n\r\n        num_shares -= amt;\r\n    }\r\n\r\n    function reissueShares(uint256 newAmount) public onlyFounders {\r\n        burnShares(num_shares);\r\n        mintShares(newAmount);\r\n    }\r\n\r\n    function getNumShares() public view returns (uint256) {\r\n        return num_shares;\r\n    }\r\n\r\n    function incrementTestVariable() public onlyFounders {\r\n        test_variable += 1;\r\n    }\r\n\r\n    function readTestVariable() public view returns (uint256) {\r\n        return test_variable;\r\n    }\r\n\r\n    function onERC1155Received(\r\n        address operator,\r\n        address from,\r\n        uint256 id,\r\n        uint256 value,\r\n        bytes calldata data\r\n    ) public virtual override returns (bytes4) {\r\n        return\r\n            bytes4(\r\n                keccak256(\r\n                    \"onERC1155Received(address,address,uint256,uint256,bytes)\"\r\n                )\r\n            );\r\n    }\r\n\r\n    function onERC1155BatchReceived(\r\n        address operator,\r\n        address from,\r\n        uint256[] calldata ids,\r\n        uint256[] calldata values,\r\n        bytes calldata data\r\n    ) public virtual override returns (bytes4) {\r\n        return\r\n            bytes4(\r\n                keccak256(\r\n                    \"onERC1155BatchReceived(address,address,uint256[],uint256[],bytes)\"\r\n                )\r\n            );\r\n    }\r\n}\r\n",
  "sourcePath": "E:\\Dev\\Solidity\\scs-app\\truffle\\contracts\\CompanyContract.sol",
  "compiler": {
    "name": "solc",
    "version": "0.8.11+commit.d7f03943.Emscripten.clang"
  },
  "schemaVersion": "3.4.4",
  "updatedAt": "2022-01-16T19:04:18.718Z",
  "networkType": "ethereum",
  "devdoc": {
    "kind": "dev",
    "methods": {
      "balanceOf(address,uint256)": {
        "details": "See {IERC1155-balanceOf}. Requirements: - `account` cannot be the zero address."
      },
      "balanceOfBatch(address[],uint256[])": {
        "details": "See {IERC1155-balanceOfBatch}. Requirements: - `accounts` and `ids` must have the same length."
      },
      "isApprovedForAll(address,address)": {
        "details": "See {IERC1155-isApprovedForAll}."
      },
      "onERC1155BatchReceived(address,address,uint256[],uint256[],bytes)": {
        "details": "Handles the receipt of a multiple ERC1155 token types. This function is called at the end of a `safeBatchTransferFrom` after the balances have been updated. To accept the transfer(s), this must return `bytes4(keccak256(\"onERC1155BatchReceived(address,address,uint256[],uint256[],bytes)\"))` (i.e. 0xbc197c81, or its own function selector).",
        "params": {
          "data": "Additional data with no specified format",
          "from": "The address which previously owned the token",
          "ids": "An array containing ids of each token being transferred (order and length must match values array)",
          "operator": "The address which initiated the batch transfer (i.e. msg.sender)",
          "values": "An array containing amounts of each token being transferred (order and length must match ids array)"
        },
        "returns": {
          "_0": "`bytes4(keccak256(\"onERC1155BatchReceived(address,address,uint256[],uint256[],bytes)\"))` if transfer is allowed"
        }
      },
      "onERC1155Received(address,address,uint256,uint256,bytes)": {
        "details": "Handles the receipt of a single ERC1155 token type. This function is called at the end of a `safeTransferFrom` after the balance has been updated. To accept the transfer, this must return `bytes4(keccak256(\"onERC1155Received(address,address,uint256,uint256,bytes)\"))` (i.e. 0xf23a6e61, or its own function selector).",
        "params": {
          "data": "Additional data with no specified format",
          "from": "The address which previously owned the token",
          "id": "The ID of the token being transferred",
          "operator": "The address which initiated the transfer (i.e. msg.sender)",
          "value": "The amount of tokens being transferred"
        },
        "returns": {
          "_0": "`bytes4(keccak256(\"onERC1155Received(address,address,uint256,uint256,bytes)\"))` if transfer is allowed"
        }
      },
      "safeBatchTransferFrom(address,address,uint256[],uint256[],bytes)": {
        "details": "See {IERC1155-safeBatchTransferFrom}."
      },
      "safeTransferFrom(address,address,uint256,uint256,bytes)": {
        "details": "See {IERC1155-safeTransferFrom}."
      },
      "setApprovalForAll(address,bool)": {
        "details": "See {IERC1155-setApprovalForAll}."
      },
      "supportsInterface(bytes4)": {
        "details": "See {IERC165-supportsInterface}."
      },
      "uri(uint256)": {
        "details": "See {IERC1155MetadataURI-uri}. This implementation returns the same URI for *all* token types. It relies on the token type ID substitution mechanism https://eips.ethereum.org/EIPS/eip-1155#metadata[defined in the EIP]. Clients calling this function must replace the `\\{id\\}` substring with the actual token type ID."
      }
    },
    "version": 1
  },
  "userdoc": {
    "kind": "user",
    "methods": {},
    "version": 1
  }
}