{
  "contractName": "CompanyContract",
  "abi": [
    {
      "inputs": [
        {
          "internalType": "string",
          "name": "company_name_",
          "type": "string"
        },
        {
          "internalType": "address[]",
          "name": "founders_",
          "type": "address[]"
        },
        {
          "internalType": "uint256",
          "name": "num_shares_",
          "type": "uint256"
        }
      ],
      "stateMutability": "nonpayable",
      "type": "constructor"
    },
    {
      "anonymous": false,
      "inputs": [
        {
          "indexed": true,
          "internalType": "address",
          "name": "account",
          "type": "address"
        },
        {
          "indexed": true,
          "internalType": "address",
          "name": "operator",
          "type": "address"
        },
        {
          "indexed": false,
          "internalType": "bool",
          "name": "approved",
          "type": "bool"
        }
      ],
      "name": "ApprovalForAll",
      "type": "event"
    },
    {
      "anonymous": false,
      "inputs": [
        {
          "indexed": true,
          "internalType": "address",
          "name": "from",
          "type": "address"
        }
      ],
      "name": "BurnSuccess",
      "type": "event"
    },
    {
      "anonymous": false,
      "inputs": [
        {
          "indexed": true,
          "internalType": "address",
          "name": "from",
          "type": "address"
        }
      ],
      "name": "MintSuccess",
      "type": "event"
    },
    {
      "anonymous": false,
      "inputs": [
        {
          "indexed": true,
          "internalType": "address",
          "name": "from",
          "type": "address"
        }
      ],
      "name": "ReissueSuccess",
      "type": "event"
    },
    {
      "anonymous": false,
      "inputs": [
        {
          "indexed": true,
          "internalType": "address",
          "name": "operator",
          "type": "address"
        },
        {
          "indexed": true,
          "internalType": "address",
          "name": "from",
          "type": "address"
        },
        {
          "indexed": true,
          "internalType": "address",
          "name": "to",
          "type": "address"
        },
        {
          "indexed": false,
          "internalType": "uint256[]",
          "name": "ids",
          "type": "uint256[]"
        },
        {
          "indexed": false,
          "internalType": "uint256[]",
          "name": "values",
          "type": "uint256[]"
        }
      ],
      "name": "TransferBatch",
      "type": "event"
    },
    {
      "anonymous": false,
      "inputs": [
        {
          "indexed": true,
          "internalType": "address",
          "name": "operator",
          "type": "address"
        },
        {
          "indexed": true,
          "internalType": "address",
          "name": "from",
          "type": "address"
        },
        {
          "indexed": true,
          "internalType": "address",
          "name": "to",
          "type": "address"
        },
        {
          "indexed": false,
          "internalType": "uint256",
          "name": "id",
          "type": "uint256"
        },
        {
          "indexed": false,
          "internalType": "uint256",
          "name": "value",
          "type": "uint256"
        }
      ],
      "name": "TransferSingle",
      "type": "event"
    },
    {
      "anonymous": false,
      "inputs": [
        {
          "indexed": false,
          "internalType": "string",
          "name": "value",
          "type": "string"
        },
        {
          "indexed": true,
          "internalType": "uint256",
          "name": "id",
          "type": "uint256"
        }
      ],
      "name": "URI",
      "type": "event"
    },
    {
      "inputs": [],
      "name": "CONTRACT",
      "outputs": [
        {
          "internalType": "uint256",
          "name": "",
          "type": "uint256"
        }
      ],
      "stateMutability": "view",
      "type": "function"
    },
    {
      "inputs": [
        {
          "internalType": "address",
          "name": "account",
          "type": "address"
        },
        {
          "internalType": "uint256",
          "name": "id",
          "type": "uint256"
        }
      ],
      "name": "balanceOf",
      "outputs": [
        {
          "internalType": "uint256",
          "name": "",
          "type": "uint256"
        }
      ],
      "stateMutability": "view",
      "type": "function"
    },
    {
      "inputs": [
        {
          "internalType": "address[]",
          "name": "accounts",
          "type": "address[]"
        },
        {
          "internalType": "uint256[]",
          "name": "ids",
          "type": "uint256[]"
        }
      ],
      "name": "balanceOfBatch",
      "outputs": [
        {
          "internalType": "uint256[]",
          "name": "",
          "type": "uint256[]"
        }
      ],
      "stateMutability": "view",
      "type": "function"
    },
    {
      "inputs": [],
      "name": "contract_address",
      "outputs": [
        {
          "internalType": "address",
          "name": "",
          "type": "address"
        }
      ],
      "stateMutability": "view",
      "type": "function"
    },
    {
      "inputs": [
        {
          "internalType": "uint256",
          "name": "",
          "type": "uint256"
        }
      ],
      "name": "founders",
      "outputs": [
        {
          "internalType": "address",
          "name": "",
          "type": "address"
        }
      ],
      "stateMutability": "view",
      "type": "function"
    },
    {
      "inputs": [
        {
          "internalType": "address",
          "name": "account",
          "type": "address"
        },
        {
          "internalType": "address",
          "name": "operator",
          "type": "address"
        }
      ],
      "name": "isApprovedForAll",
      "outputs": [
        {
          "internalType": "bool",
          "name": "",
          "type": "bool"
        }
      ],
      "stateMutability": "view",
      "type": "function"
    },
    {
      "inputs": [],
      "name": "num_shares",
      "outputs": [
        {
          "internalType": "uint256",
          "name": "",
          "type": "uint256"
        }
      ],
      "stateMutability": "view",
      "type": "function"
    },
    {
      "inputs": [
        {
          "internalType": "address",
          "name": "from",
          "type": "address"
        },
        {
          "internalType": "address",
          "name": "to",
          "type": "address"
        },
        {
          "internalType": "uint256[]",
          "name": "ids",
          "type": "uint256[]"
        },
        {
          "internalType": "uint256[]",
          "name": "amounts",
          "type": "uint256[]"
        },
        {
          "internalType": "bytes",
          "name": "data",
          "type": "bytes"
        }
      ],
      "name": "safeBatchTransferFrom",
      "outputs": [],
      "stateMutability": "nonpayable",
      "type": "function"
    },
    {
      "inputs": [
        {
          "internalType": "address",
          "name": "from",
          "type": "address"
        },
        {
          "internalType": "address",
          "name": "to",
          "type": "address"
        },
        {
          "internalType": "uint256",
          "name": "id",
          "type": "uint256"
        },
        {
          "internalType": "uint256",
          "name": "amount",
          "type": "uint256"
        },
        {
          "internalType": "bytes",
          "name": "data",
          "type": "bytes"
        }
      ],
      "name": "safeTransferFrom",
      "outputs": [],
      "stateMutability": "nonpayable",
      "type": "function"
    },
    {
      "inputs": [
        {
          "internalType": "address",
          "name": "operator",
          "type": "address"
        },
        {
          "internalType": "bool",
          "name": "approved",
          "type": "bool"
        }
      ],
      "name": "setApprovalForAll",
      "outputs": [],
      "stateMutability": "nonpayable",
      "type": "function"
    },
    {
      "inputs": [
        {
          "internalType": "bytes4",
          "name": "interfaceId",
          "type": "bytes4"
        }
      ],
      "name": "supportsInterface",
      "outputs": [
        {
          "internalType": "bool",
          "name": "",
          "type": "bool"
        }
      ],
      "stateMutability": "view",
      "type": "function"
    },
    {
      "inputs": [
        {
          "internalType": "uint256",
          "name": "",
          "type": "uint256"
        }
      ],
      "name": "uri",
      "outputs": [
        {
          "internalType": "string",
          "name": "",
          "type": "string"
        }
      ],
      "stateMutability": "view",
      "type": "function"
    },
    {
      "inputs": [
        {
          "internalType": "uint256",
          "name": "amt",
          "type": "uint256"
        }
      ],
      "name": "mintShares",
      "outputs": [],
      "stateMutability": "nonpayable",
      "type": "function"
    },
    {
      "inputs": [
        {
          "internalType": "uint256",
          "name": "amt",
          "type": "uint256"
        }
      ],
      "name": "burnShares",
      "outputs": [],
      "stateMutability": "nonpayable",
      "type": "function"
    },
    {
      "inputs": [
        {
          "internalType": "uint256",
          "name": "newAmount",
          "type": "uint256"
        }
      ],
      "name": "reissueShares",
      "outputs": [],
      "stateMutability": "nonpayable",
      "type": "function"
    },
    {
      "inputs": [
        {
          "internalType": "address",
          "name": "to",
          "type": "address"
        },
        {
          "internalType": "uint256",
          "name": "amount",
          "type": "uint256"
        }
      ],
      "name": "transferShares",
      "outputs": [],
      "stateMutability": "nonpayable",
      "type": "function"
    },
    {
      "inputs": [],
      "name": "getNumShares",
      "outputs": [
        {
          "internalType": "uint256",
          "name": "",
          "type": "uint256"
        }
      ],
      "stateMutability": "view",
      "type": "function"
    },
    {
      "inputs": [],
      "name": "incrementTestVariable",
      "outputs": [],
      "stateMutability": "nonpayable",
      "type": "function"
    },
    {
      "inputs": [],
      "name": "readTestVariable",
      "outputs": [
        {
          "internalType": "uint256",
          "name": "",
          "type": "uint256"
        }
      ],
      "stateMutability": "view",
      "type": "function"
    },
    {
      "inputs": [
        {
          "internalType": "address",
          "name": "operator",
          "type": "address"
        },
        {
          "internalType": "address",
          "name": "from",
          "type": "address"
        },
        {
          "internalType": "uint256",
          "name": "id",
          "type": "uint256"
        },
        {
          "internalType": "uint256",
          "name": "value",
          "type": "uint256"
        },
        {
          "internalType": "bytes",
          "name": "data",
          "type": "bytes"
        }
      ],
      "name": "onERC1155Received",
      "outputs": [
        {
          "internalType": "bytes4",
          "name": "",
          "type": "bytes4"
        }
      ],
      "stateMutability": "nonpayable",
      "type": "function"
    },
    {
      "inputs": [
        {
          "internalType": "address",
          "name": "operator",
          "type": "address"
        },
        {
          "internalType": "address",
          "name": "from",
          "type": "address"
        },
        {
          "internalType": "uint256[]",
          "name": "ids",
          "type": "uint256[]"
        },
        {
          "internalType": "uint256[]",
          "name": "values",
          "type": "uint256[]"
        },
        {
          "internalType": "bytes",
          "name": "data",
          "type": "bytes"
        }
      ],
      "name": "onERC1155BatchReceived",
      "outputs": [
        {
          "internalType": "bytes4",
          "name": "",
          "type": "bytes4"
        }
      ],
      "stateMutability": "nonpayable",
      "type": "function"
    }
  ],
  "bytecode": "0x608060405260006009553480156200001657600080fd5b50604051620028b4380380620028b4833981016040819052620000399162000751565b6040518060800160405280605d815260200162002857605d91396200005e816200022c565b506000825111620000c05760405162461bcd60e51b815260206004820152602160248201527f4e756d626572206f66206f776e657273206d757374206265206e6f6e2d7a65726044820152606f60f81b60648201526084015b60405180910390fd5b600880546001600160a01b031916301790558251620000e790600390602086019062000593565b5042600455600581905560005b8251811015620001fe57600083828151811062000115576200011562000824565b6020908102919091018101516001600160a01b0381166000908152600790925260409091205490915060ff1615620001855760405162461bcd60e51b81526020600482015260126024820152712737ba103ab734b8bab2903337bab73232b960711b6044820152606401620000b7565b6001600160a01b03166000818152600760205260408120805460ff191660019081179091556006805491820181559091527ff652222313e28459528d920b65115c16c04f3efc82aaedc97be59f3f377c0d3f0180546001600160a01b031916909117905580620001f58162000850565b915050620000f4565b506200022330600183604051806020016040528060008152506200024560201b60201c565b50505062000a2f565b80516200024190600290602084019062000593565b5050565b6001600160a01b038416620002a75760405162461bcd60e51b815260206004820152602160248201527f455243313135353a206d696e7420746f20746865207a65726f206164647265736044820152607360f81b6064820152608401620000b7565b33620002cd81600087620002bb8862000361565b620002c68862000361565b5050505050565b6000848152602081815260408083206001600160a01b038916845290915281208054859290620002ff9084906200086e565b909155505060408051858152602081018590526001600160a01b0380881692600092918516917fc3d58168c5ae7397731d063d5bbf3d657854427343f4c083240f7aacaa2d0f62910160405180910390a4620002c681600087878787620003b7565b604080516001808252818301909252606091600091906020808301908036833701905050905082816000815181106200039e576200039e62000824565b602090810291909101015292915050565b505050505050565b620003d6846001600160a01b03166200058d60201b62000b1f1760201c565b15620003af5760405163f23a6e6160e01b81526001600160a01b0385169063f23a6e6190620004129089908990889088908890600401620008b7565b6020604051808303816000875af192505050801562000450575060408051601f3d908101601f191682019092526200044d91810190620008fe565b60015b62000511576200045f62000931565b806308c379a01415620004a05750620004776200094e565b80620004845750620004a2565b8060405162461bcd60e51b8152600401620000b79190620009dd565b505b60405162461bcd60e51b815260206004820152603460248201527f455243313135353a207472616e7366657220746f206e6f6e204552433131353560448201527f526563656976657220696d706c656d656e7465720000000000000000000000006064820152608401620000b7565b6001600160e01b0319811663f23a6e6160e01b14620005845760405162461bcd60e51b815260206004820152602860248201527f455243313135353a204552433131353552656365697665722072656a656374656044820152676420746f6b656e7360c01b6064820152608401620000b7565b50505050505050565b3b151590565b828054620005a190620009f2565b90600052602060002090601f016020900481019282620005c5576000855562000610565b82601f10620005e057805160ff191683800117855562000610565b8280016001018555821562000610579182015b8281111562000610578251825591602001919060010190620005f3565b506200061e92915062000622565b5090565b5b808211156200061e576000815560010162000623565b634e487b7160e01b600052604160045260246000fd5b601f8201601f191681016001600160401b038111828210171562000677576200067762000639565b6040525050565b60005b838110156200069b57818101518382015260200162000681565b83811115620006ab576000848401525b50505050565b600082601f830112620006c357600080fd5b815160206001600160401b03821115620006e157620006e162000639565b8160051b604051620006f6838301826200064f565b928352848101820192828101878511156200071057600080fd5b83870192505b84831015620007465782516001600160a01b0381168114620007385760008081fd5b815291830191830162000716565b509695505050505050565b6000806000606084860312156200076757600080fd5b83516001600160401b03808211156200077f57600080fd5b818601915086601f8301126200079457600080fd5b815181811115620007a957620007a962000639565b604051620007c2601f8301601f1916602001826200064f565b818152886020838601011115620007d857600080fd5b620007eb8260208301602087016200067e565b6020880151909650925050808211156200080457600080fd5b506200081386828701620006b1565b925050604084015190509250925092565b634e487b7160e01b600052603260045260246000fd5b634e487b7160e01b600052601160045260246000fd5b60006000198214156200086757620008676200083a565b5060010190565b600082198211156200088457620008846200083a565b500190565b60008151808452620008a38160208601602086016200067e565b601f01601f19169290920160200192915050565b6001600160a01b03868116825285166020820152604081018490526060810183905260a060808201819052600090620008f39083018462000889565b979650505050505050565b6000602082840312156200091157600080fd5b81516001600160e01b0319811681146200092a57600080fd5b9392505050565b600060033d11156200094b5760046000803e5060005160e01c5b90565b600060443d10156200095d5790565b6040516003193d81016004833e81513d6001600160401b0380831160248401831017156200098d57505050505090565b8285019150815181811115620009a65750505050505090565b843d8701016020828501011115620009c15750505050505090565b620009d2602082860101876200064f565b509095945050505050565b6020815260006200092a602083018462000889565b600181811c9082168062000a0757607f821691505b6020821081141562000a2957634e487b7160e01b600052602260045260246000fd5b50919050565b611e188062000a3f6000396000f3fe608060405234801561001057600080fd5b50600436106101365760003560e01c80638ce65d74116100b8578063bc197c811161007c578063bc197c8114610284578063d8e75f62146102d8578063e985e9c5146102eb578063f23a6e6114610327578063f242432a14610360578063fc833ac61461037357600080fd5b80638ce65d741461020d5780638fcb4e5b14610220578063966b351414610233578063a22cb4651461025e578063b1aa90a11461027157600080fd5b8063436c595e116100ff578063436c595e146101c15780634e1273f4146101c957806374f894d4146101e95780637a5c79ff146101f1578063853c637d146101fa57600080fd5b8062fdd58e1461013b57806301ffc9a7146101615780630e89341c1461018457806315b8faf2146101a45780632eb2c2d6146101ac575b600080fd5b61014e610149366004611402565b61037b565b6040519081526020015b60405180910390f35b61017461016f366004611442565b610412565b6040519015158152602001610158565b610197610192366004611466565b610464565b60405161015891906114cc565b60055461014e565b6101bf6101ba36600461162b565b6104f8565b005b6101bf61058f565b6101dc6101d73660046116d5565b6105e7565b60405161015891906117db565b60095461014e565b61014e60055481565b6101bf610208366004611466565b610711565b6101bf61021b366004611466565b610820565b6101bf61022e366004611402565b6108a0565b600854610246906001600160a01b031681565b6040516001600160a01b039091168152602001610158565b6101bf61026c3660046117ee565b610945565b6101bf61027f366004611466565b610950565b6102bf6102923660046118b8565b7fbc197c819b3e337a6f9652dd10becd7eef83032af3b9d958d3d42f669414662198975050505050505050565b6040516001600160e01b03199091168152602001610158565b6102466102e6366004611466565b610a6e565b6101746102f9366004611973565b6001600160a01b03918216600090815260016020908152604080832093909416825291909152205460ff1690565b6102bf6103353660046119a6565b7ff23a6e612e1ff4830e658fe43f4e3cb4a5f8170bd5d9e69fb5d7a7fa9e4fdf979695505050505050565b6101bf61036e366004611a1e565b610a98565b61014e600181565b60006001600160a01b0383166103ec5760405162461bcd60e51b815260206004820152602b60248201527f455243313135353a2062616c616e636520717565727920666f7220746865207a60448201526a65726f206164647265737360a81b60648201526084015b60405180910390fd5b506000908152602081815260408083206001600160a01b03949094168352929052205490565b60006001600160e01b03198216636cdb3d1360e11b148061044357506001600160e01b031982166303a24d0760e21b145b8061045e57506301ffc9a760e01b6001600160e01b03198316145b92915050565b60606002805461047390611a83565b80601f016020809104026020016040519081016040528092919081815260200182805461049f90611a83565b80156104ec5780601f106104c1576101008083540402835291602001916104ec565b820191906000526020600020905b8154815290600101906020018083116104cf57829003601f168201915b50505050509050919050565b6001600160a01b038516331480610514575061051485336102f9565b61057b5760405162461bcd60e51b815260206004820152603260248201527f455243313135353a207472616e736665722063616c6c6572206973206e6f74206044820152711bdddb995c881b9bdc88185c1c1c9bdd995960721b60648201526084016103e3565b6105888585858585610b25565b5050505050565b3360009081526007602052604090205460ff161515600114806105b157503330145b6105cd5760405162461bcd60e51b81526004016103e390611abe565b6001600960008282546105e09190611b17565b9091555050565b6060815183511461064c5760405162461bcd60e51b815260206004820152602960248201527f455243313135353a206163636f756e747320616e6420696473206c656e677468604482015268040dad2e6dac2e8c6d60bb1b60648201526084016103e3565b6000835167ffffffffffffffff811115610668576106686114df565b604051908082528060200260200182016040528015610691578160200160208202803683370190505b50905060005b8451811015610709576106dc8582815181106106b5576106b5611b2f565b60200260200101518583815181106106cf576106cf611b2f565b602002602001015161037b565b8282815181106106ee576106ee611b2f565b602090810291909101015261070281611b45565b9050610697565b509392505050565b3360009081526007602052604090205460ff1615156001148061073357503330145b61074f5760405162461bcd60e51b81526004016103e390611abe565b336000908152600b60205260408120805460ff191660011790555b6006548110156107cd57600b60006006838154811061078b5761078b611b2f565b60009182526020808320909101546001600160a01b0316835282019290925260400190205460ff166107bb575050565b806107c581611b45565b91505061076a565b506107da30600183610d02565b80600560008282546107ec9190611b60565b909155505060405130907fd9bfb419ddd37af955bbd602072c0f6ad15fdc1b41f8b21519eb02ba6651cc8b90600090a25b50565b3360009081526007602052604090205460ff1615156001148061084257503330145b61085e5760405162461bcd60e51b81526004016103e390611abe565b610869600554610711565b61087281610950565b60405130907f5de575735d232ba6b1a823dd43f898ad742ec222d747314421d32cf27cc64c9390600090a250565b3360009081526007602052604090205460ff161515600114806108c257503330145b6108de5760405162461bcd60e51b81526004016103e390611abe565b6005548111156109245760405162461bcd60e51b81526020600482015260116024820152704e6f7420656e6f7567682073686172657360781b60448201526064016103e3565b610941308360018460405180602001604052806000815250610e7c565b5050565b610941338383610fa2565b3360009081526007602052604090205460ff1615156001148061097257503330145b61098e5760405162461bcd60e51b81526004016103e390611abe565b336000908152600a60205260408120805460ff191660011790555b600654811015610a0c57600a6000600683815481106109ca576109ca611b2f565b60009182526020808320909101546001600160a01b0316835282019290925260400190205460ff166109fa575050565b80610a0481611b45565b9150506109a9565b50610a293060018360405180602001604052806000815250611083565b8060056000828254610a3b9190611b17565b909155505060405130907fc223e75123cea96fcfe2c9edabb854829841895c18880505fb134c3028c0c2a790600090a250565b60068181548110610a7e57600080fd5b6000918252602090912001546001600160a01b0316905081565b6001600160a01b038516331480610ab45750610ab485336102f9565b610b125760405162461bcd60e51b815260206004820152602960248201527f455243313135353a2063616c6c6572206973206e6f74206f776e6572206e6f7260448201526808185c1c1c9bdd995960ba1b60648201526084016103e3565b6105888585858585610e7c565b3b151590565b8151835114610b875760405162461bcd60e51b815260206004820152602860248201527f455243313135353a2069647320616e6420616d6f756e7473206c656e677468206044820152670dad2e6dac2e8c6d60c31b60648201526084016103e3565b6001600160a01b038416610bad5760405162461bcd60e51b81526004016103e390611b77565b3360005b8451811015610c94576000858281518110610bce57610bce611b2f565b602002602001015190506000858381518110610bec57610bec611b2f565b602090810291909101810151600084815280835260408082206001600160a01b038e168352909352919091205490915081811015610c3c5760405162461bcd60e51b81526004016103e390611bbc565b6000838152602081815260408083206001600160a01b038e8116855292528083208585039055908b16825281208054849290610c79908490611b17565b9250508190555050505080610c8d90611b45565b9050610bb1565b50846001600160a01b0316866001600160a01b0316826001600160a01b03167f4a39dc06d4c0dbc64b70af90fd698a233a518aa5d07e595d983b8c0526c8f7fb8787604051610ce4929190611c06565b60405180910390a4610cfa818787878787611184565b505050505050565b6001600160a01b038316610d645760405162461bcd60e51b815260206004820152602360248201527f455243313135353a206275726e2066726f6d20746865207a65726f206164647260448201526265737360e81b60648201526084016103e3565b33610d9481856000610d75876112e0565b610d7e876112e0565b5050604080516020810190915260009052505050565b6000838152602081815260408083206001600160a01b038816845290915290205482811015610e115760405162461bcd60e51b8152602060048201526024808201527f455243313135353a206275726e20616d6f756e7420657863656564732062616c604482015263616e636560e01b60648201526084016103e3565b6000848152602081815260408083206001600160a01b03898116808652918452828520888703905582518981529384018890529092908616917fc3d58168c5ae7397731d063d5bbf3d657854427343f4c083240f7aacaa2d0f62910160405180910390a45050505050565b6001600160a01b038416610ea25760405162461bcd60e51b81526004016103e390611b77565b33610ebb818787610eb2886112e0565b610588886112e0565b6000848152602081815260408083206001600160a01b038a16845290915290205483811015610efc5760405162461bcd60e51b81526004016103e390611bbc565b6000858152602081815260408083206001600160a01b038b8116855292528083208785039055908816825281208054869290610f39908490611b17565b909155505060408051868152602081018690526001600160a01b03808916928a821692918616917fc3d58168c5ae7397731d063d5bbf3d657854427343f4c083240f7aacaa2d0f62910160405180910390a4610f9982888888888861132b565b50505050505050565b816001600160a01b0316836001600160a01b031614156110165760405162461bcd60e51b815260206004820152602960248201527f455243313135353a2073657474696e6720617070726f76616c20737461747573604482015268103337b91039b2b63360b91b60648201526084016103e3565b6001600160a01b03838116600081815260016020908152604080832094871680845294825291829020805460ff191686151590811790915591519182527f17307eab39ab6107e8899845ad3d59bd9653f200f220920489ca2b5937696c31910160405180910390a3505050565b6001600160a01b0384166110e35760405162461bcd60e51b815260206004820152602160248201527f455243313135353a206d696e7420746f20746865207a65726f206164647265736044820152607360f81b60648201526084016103e3565b336110f481600087610eb2886112e0565b6000848152602081815260408083206001600160a01b038916845290915281208054859290611124908490611b17565b909155505060408051858152602081018590526001600160a01b0380881692600092918516917fc3d58168c5ae7397731d063d5bbf3d657854427343f4c083240f7aacaa2d0f62910160405180910390a46105888160008787878761132b565b6001600160a01b0384163b15610cfa5760405163bc197c8160e01b81526001600160a01b0385169063bc197c81906111c89089908990889088908890600401611c34565b6020604051808303816000875af1925050508015611203575060408051601f3d908101601f1916820190925261120091810190611c92565b60015b6112b05761120f611caf565b806308c379a014156112495750611224611ccb565b8061122f575061124b565b8060405162461bcd60e51b81526004016103e391906114cc565b505b60405162461bcd60e51b815260206004820152603460248201527f455243313135353a207472616e7366657220746f206e6f6e20455243313135356044820152732932b1b2b4bb32b91034b6b83632b6b2b73a32b960611b60648201526084016103e3565b6001600160e01b0319811663bc197c8160e01b14610f995760405162461bcd60e51b81526004016103e390611d55565b6040805160018082528183019092526060916000919060208083019080368337019050509050828160008151811061131a5761131a611b2f565b602090810291909101015292915050565b6001600160a01b0384163b15610cfa5760405163f23a6e6160e01b81526001600160a01b0385169063f23a6e619061136f9089908990889088908890600401611d9d565b6020604051808303816000875af19250505080156113aa575060408051601f3d908101601f191682019092526113a791810190611c92565b60015b6113b65761120f611caf565b6001600160e01b0319811663f23a6e6160e01b14610f995760405162461bcd60e51b81526004016103e390611d55565b80356001600160a01b03811681146113fd57600080fd5b919050565b6000806040838503121561141557600080fd5b61141e836113e6565b946020939093013593505050565b6001600160e01b03198116811461081d57600080fd5b60006020828403121561145457600080fd5b813561145f8161142c565b9392505050565b60006020828403121561147857600080fd5b5035919050565b6000815180845260005b818110156114a557602081850181015186830182015201611489565b818111156114b7576000602083870101525b50601f01601f19169290920160200192915050565b60208152600061145f602083018461147f565b634e487b7160e01b600052604160045260246000fd5b601f8201601f1916810167ffffffffffffffff8111828210171561151b5761151b6114df565b6040525050565b600067ffffffffffffffff82111561153c5761153c6114df565b5060051b60200190565b600082601f83011261155757600080fd5b8135602061156482611522565b60405161157182826114f5565b83815260059390931b850182019282810191508684111561159157600080fd5b8286015b848110156115ac5780358352918301918301611595565b509695505050505050565b600082601f8301126115c857600080fd5b813567ffffffffffffffff8111156115e2576115e26114df565b6040516115f9601f8301601f1916602001826114f5565b81815284602083860101111561160e57600080fd5b816020850160208301376000918101602001919091529392505050565b600080600080600060a0868803121561164357600080fd5b61164c866113e6565b945061165a602087016113e6565b9350604086013567ffffffffffffffff8082111561167757600080fd5b61168389838a01611546565b9450606088013591508082111561169957600080fd5b6116a589838a01611546565b935060808801359150808211156116bb57600080fd5b506116c8888289016115b7565b9150509295509295909350565b600080604083850312156116e857600080fd5b823567ffffffffffffffff8082111561170057600080fd5b818501915085601f83011261171457600080fd5b8135602061172182611522565b60405161172e82826114f5565b83815260059390931b850182019282810191508984111561174e57600080fd5b948201945b8386101561177357611764866113e6565b82529482019490820190611753565b9650508601359250508082111561178957600080fd5b5061179685828601611546565b9150509250929050565b600081518084526020808501945080840160005b838110156117d0578151875295820195908201906001016117b4565b509495945050505050565b60208152600061145f60208301846117a0565b6000806040838503121561180157600080fd5b61180a836113e6565b91506020830135801515811461181f57600080fd5b809150509250929050565b60008083601f84011261183c57600080fd5b50813567ffffffffffffffff81111561185457600080fd5b6020830191508360208260051b850101111561186f57600080fd5b9250929050565b60008083601f84011261188857600080fd5b50813567ffffffffffffffff8111156118a057600080fd5b60208301915083602082850101111561186f57600080fd5b60008060008060008060008060a0898b0312156118d457600080fd5b6118dd896113e6565b97506118eb60208a016113e6565b9650604089013567ffffffffffffffff8082111561190857600080fd5b6119148c838d0161182a565b909850965060608b013591508082111561192d57600080fd5b6119398c838d0161182a565b909650945060808b013591508082111561195257600080fd5b5061195f8b828c01611876565b999c989b5096995094979396929594505050565b6000806040838503121561198657600080fd5b61198f836113e6565b915061199d602084016113e6565b90509250929050565b60008060008060008060a087890312156119bf57600080fd5b6119c8876113e6565b95506119d6602088016113e6565b94506040870135935060608701359250608087013567ffffffffffffffff811115611a0057600080fd5b611a0c89828a01611876565b979a9699509497509295939492505050565b600080600080600060a08688031215611a3657600080fd5b611a3f866113e6565b9450611a4d602087016113e6565b93506040860135925060608601359150608086013567ffffffffffffffff811115611a7757600080fd5b6116c8888289016115b7565b600181811c90821680611a9757607f821691505b60208210811415611ab857634e487b7160e01b600052602260045260246000fd5b50919050565b60208082526023908201527f66756e6374696f6e206f6e6c7920617661696c61626c6520746f20666f756e6460408201526265727360e81b606082015260800190565b634e487b7160e01b600052601160045260246000fd5b60008219821115611b2a57611b2a611b01565b500190565b634e487b7160e01b600052603260045260246000fd5b6000600019821415611b5957611b59611b01565b5060010190565b600082821015611b7257611b72611b01565b500390565b60208082526025908201527f455243313135353a207472616e7366657220746f20746865207a65726f206164604082015264647265737360d81b606082015260800190565b6020808252602a908201527f455243313135353a20696e73756666696369656e742062616c616e636520666f60408201526939103a3930b739b332b960b11b606082015260800190565b604081526000611c1960408301856117a0565b8281036020840152611c2b81856117a0565b95945050505050565b6001600160a01b0386811682528516602082015260a060408201819052600090611c60908301866117a0565b8281036060840152611c7281866117a0565b90508281036080840152611c86818561147f565b98975050505050505050565b600060208284031215611ca457600080fd5b815161145f8161142c565b600060033d1115611cc85760046000803e5060005160e01c5b90565b600060443d1015611cd95790565b6040516003193d81016004833e81513d67ffffffffffffffff8160248401118184111715611d0957505050505090565b8285019150815181811115611d215750505050505090565b843d8701016020828501011115611d3b5750505050505090565b611d4a602082860101876114f5565b509095945050505050565b60208082526028908201527f455243313135353a204552433131353552656365697665722072656a656374656040820152676420746f6b656e7360c01b606082015260800190565b6001600160a01b03868116825285166020820152604081018490526060810183905260a060808201819052600090611dd79083018461147f565b97965050505050505056fea26469706673582212201b7ac52618424a732a98581aae0e25085d464deff3d589a0cafb34c0d62a4bcf64736f6c634300080b003368747470733a2f2f697066732e696f2f697066732f516d595a716b794472714c4b346f7756795147477333704731716851586a4e56375172396a566e33396f774d6d653f66696c656e616d653d63657274696669636174652e6a736f6e",
  "immutableReferences": {},
  "source": "// SPDX-License-Identifier: MIT\r\n\r\npragma solidity ^0.8.0;\r\n\r\nimport \"../node_modules/@openzeppelin/contracts/token/ERC1155/ERC1155.sol\";\r\nimport \"../node_modules/@openzeppelin/contracts/token/ERC1155/IERC1155Receiver.sol\";\r\n\r\ncontract CompanyContract is ERC1155, IERC1155Receiver {\r\n    string company_name;\r\n    uint256 founding_date;\r\n    uint256 public num_shares;\r\n    address[] public founders;\r\n    mapping(address => bool) is_founder;\r\n    address public contract_address;\r\n    address constant burn_address = 0x000000000000000000000000000000000000dEaD;\r\n    uint256 test_variable = 0;\r\n\r\n    mapping(address => bool) mint_votes;\r\n    mapping(address => bool) burn_votes;\r\n    mapping(address => bool) reissue_votes;\r\n\r\n    uint256 public constant CONTRACT = 1;\r\n\r\n    event MintSuccess(address indexed from);\r\n    event BurnSuccess(address indexed from);\r\n    event ReissueSuccess(address indexed from);\r\n\r\n    modifier onlyFounders() {\r\n        require(\r\n            is_founder[msg.sender] == true || msg.sender == address(this),\r\n            \"function only available to founders\"\r\n        );\r\n\r\n        _;\r\n    }\r\n\r\n    constructor(\r\n        string memory company_name_,\r\n        address[] memory founders_,\r\n        uint256 num_shares_\r\n    )\r\n        public\r\n        ERC1155(\r\n            \"https://ipfs.io/ipfs/QmYZqkyDrqLK4owVyQGGs3pG1qhQXjNV7Qr9jVn39owMme?filename=certificate.json\"\r\n        )\r\n    {\r\n        require(founders_.length > 0, \"Number of owners must be non-zero\");\r\n\r\n        contract_address = address(this);\r\n        company_name = company_name_;\r\n        founding_date = block.timestamp;\r\n        num_shares = num_shares_;\r\n\r\n        for (uint256 i = 0; i < founders_.length; i++) {\r\n            address founder = founders_[i];\r\n\r\n            require(!is_founder[founder], \"Not unique founder\");\r\n\r\n            is_founder[founder] = true;\r\n            founders.push(founder);\r\n        }\r\n\r\n        _mint(address(this), CONTRACT, num_shares_, \"\");\r\n    }\r\n\r\n    function mintShares(uint256 amt) public onlyFounders {\r\n        mint_votes[msg.sender] = true;\r\n        // mint_transactions.push(\r\n        //     Transaction({\r\n        //         initiator: msg.sender,\r\n        //         value: amt,\r\n        //         executed: false,\r\n        //         num_confirmations: 0\r\n        //     })\r\n        // );\r\n\r\n        for (uint256 i = 0; i < founders.length; i++) {\r\n            if (!mint_votes[founders[i]]) {\r\n                return;\r\n            }\r\n        }\r\n\r\n        _mint(address(this), CONTRACT, amt, \"\");\r\n\r\n        num_shares += amt;\r\n        emit MintSuccess(address(this));\r\n    }\r\n\r\n    // function confirmMintShare(uint256 tx_idx)\r\n    //     public\r\n    //     onlyFounders\r\n    //     mintTxExists(tx_idx)\r\n    //     mintNotExecuted(tx_idx)\r\n    //     mintNotConfirmed(tx_idx)\r\n    // {\r\n    //     Transaction storage transaction = mint_transactions[tx_idx];\r\n    //     transaction.num_confirmations += 1;\r\n    //     mint_confirmations[tx_idx][msg.sender] = true;\r\n    // }\r\n\r\n    // function executeMintShare(uint256 tx_idx)\r\n    //     public\r\n    //     onlyFounders\r\n    //     mintTxExists(tx_idx)\r\n    //     mintNotExecuted(tx_idx)\r\n    // {\r\n    //     Transaction storage transaction = mint_transactions[tx_idx];\r\n\r\n    //     require(\r\n    //         transaction.num_confirmations == founders.length,\r\n    //         \"Not enough confirmations\"\r\n    //     );\r\n\r\n    //     transaction.executed = true;\r\n\r\n    //     _mint(address(this), CONTRACT, transaction.value, \"\");\r\n\r\n    //     num_shares += 1;\r\n    // }\r\n\r\n    function burnShares(uint256 amt) public onlyFounders {\r\n        // safeTransferFrom(address(this), burn_address, CONTRACT, amt, \"\");\r\n        burn_votes[msg.sender] = true;\r\n\r\n        for (uint256 i = 0; i < founders.length; i++) {\r\n            if (!burn_votes[founders[i]]) {\r\n                return;\r\n            }\r\n        }\r\n        _burn(address(this), CONTRACT, amt);\r\n\r\n        num_shares -= amt;\r\n        emit BurnSuccess(address(this));\r\n    }\r\n\r\n    function reissueShares(uint256 newAmount) public onlyFounders {\r\n        burnShares(num_shares);\r\n        mintShares(newAmount);\r\n\r\n        emit ReissueSuccess(address(this));\r\n    }\r\n\r\n    function transferShares(address to, uint256 amount) public onlyFounders {\r\n        require(amount <= num_shares, \"Not enough shares\");\r\n\r\n        _safeTransferFrom(address(this), to, CONTRACT, amount, \"\");\r\n    }\r\n\r\n    function getNumShares() public view returns (uint256) {\r\n        return num_shares;\r\n    }\r\n\r\n    function incrementTestVariable() public onlyFounders {\r\n        test_variable += 1;\r\n    }\r\n\r\n    function readTestVariable() public view returns (uint256) {\r\n        return test_variable;\r\n    }\r\n\r\n    function onERC1155Received(\r\n        address operator,\r\n        address from,\r\n        uint256 id,\r\n        uint256 value,\r\n        bytes calldata data\r\n    ) public virtual override returns (bytes4) {\r\n        return\r\n            bytes4(\r\n                keccak256(\r\n                    \"onERC1155Received(address,address,uint256,uint256,bytes)\"\r\n                )\r\n            );\r\n    }\r\n\r\n    function onERC1155BatchReceived(\r\n        address operator,\r\n        address from,\r\n        uint256[] calldata ids,\r\n        uint256[] calldata values,\r\n        bytes calldata data\r\n    ) public virtual override returns (bytes4) {\r\n        return\r\n            bytes4(\r\n                keccak256(\r\n                    \"onERC1155BatchReceived(address,address,uint256[],uint256[],bytes)\"\r\n                )\r\n            );\r\n    }\r\n}\r\n",
  "sourcePath": "E:\\Dev\\Solidity\\scs-app\\truffle\\contracts\\CompanyContract.sol",
  "compiler": {
    "name": "solc",
    "version": "0.8.11+commit.d7f03943.Emscripten.clang"
  },
  "schemaVersion": "3.4.4",
  "updatedAt": "2022-01-17T08:07:18.260Z",
  "networkType": "ethereum",
  "devdoc": {
    "kind": "dev",
    "methods": {
      "balanceOf(address,uint256)": {
        "details": "See {IERC1155-balanceOf}. Requirements: - `account` cannot be the zero address."
      },
      "balanceOfBatch(address[],uint256[])": {
        "details": "See {IERC1155-balanceOfBatch}. Requirements: - `accounts` and `ids` must have the same length."
      },
      "isApprovedForAll(address,address)": {
        "details": "See {IERC1155-isApprovedForAll}."
      },
      "onERC1155BatchReceived(address,address,uint256[],uint256[],bytes)": {
        "details": "Handles the receipt of a multiple ERC1155 token types. This function is called at the end of a `safeBatchTransferFrom` after the balances have been updated. To accept the transfer(s), this must return `bytes4(keccak256(\"onERC1155BatchReceived(address,address,uint256[],uint256[],bytes)\"))` (i.e. 0xbc197c81, or its own function selector).",
        "params": {
          "data": "Additional data with no specified format",
          "from": "The address which previously owned the token",
          "ids": "An array containing ids of each token being transferred (order and length must match values array)",
          "operator": "The address which initiated the batch transfer (i.e. msg.sender)",
          "values": "An array containing amounts of each token being transferred (order and length must match ids array)"
        },
        "returns": {
          "_0": "`bytes4(keccak256(\"onERC1155BatchReceived(address,address,uint256[],uint256[],bytes)\"))` if transfer is allowed"
        }
      },
      "onERC1155Received(address,address,uint256,uint256,bytes)": {
        "details": "Handles the receipt of a single ERC1155 token type. This function is called at the end of a `safeTransferFrom` after the balance has been updated. To accept the transfer, this must return `bytes4(keccak256(\"onERC1155Received(address,address,uint256,uint256,bytes)\"))` (i.e. 0xf23a6e61, or its own function selector).",
        "params": {
          "data": "Additional data with no specified format",
          "from": "The address which previously owned the token",
          "id": "The ID of the token being transferred",
          "operator": "The address which initiated the transfer (i.e. msg.sender)",
          "value": "The amount of tokens being transferred"
        },
        "returns": {
          "_0": "`bytes4(keccak256(\"onERC1155Received(address,address,uint256,uint256,bytes)\"))` if transfer is allowed"
        }
      },
      "safeBatchTransferFrom(address,address,uint256[],uint256[],bytes)": {
        "details": "See {IERC1155-safeBatchTransferFrom}."
      },
      "safeTransferFrom(address,address,uint256,uint256,bytes)": {
        "details": "See {IERC1155-safeTransferFrom}."
      },
      "setApprovalForAll(address,bool)": {
        "details": "See {IERC1155-setApprovalForAll}."
      },
      "supportsInterface(bytes4)": {
        "details": "See {IERC165-supportsInterface}."
      },
      "uri(uint256)": {
        "details": "See {IERC1155MetadataURI-uri}. This implementation returns the same URI for *all* token types. It relies on the token type ID substitution mechanism https://eips.ethereum.org/EIPS/eip-1155#metadata[defined in the EIP]. Clients calling this function must replace the `\\{id\\}` substring with the actual token type ID."
      }
    },
    "version": 1
  },
  "userdoc": {
    "kind": "user",
    "methods": {},
    "version": 1
  }
}