{
  "contractName": "SCS",
  "abi": [
    {
      "inputs": [],
      "stateMutability": "nonpayable",
      "type": "constructor"
    },
    {
      "anonymous": false,
      "inputs": [
        {
          "indexed": true,
          "internalType": "address",
          "name": "from",
          "type": "address"
        }
      ],
      "name": "CompanyCreated",
      "type": "event"
    },
    {
      "inputs": [
        {
          "internalType": "string",
          "name": "company_name_",
          "type": "string"
        },
        {
          "internalType": "address[]",
          "name": "founders_",
          "type": "address[]"
        },
        {
          "internalType": "uint256",
          "name": "num_shares_",
          "type": "uint256"
        }
      ],
      "name": "addCompany",
      "outputs": [],
      "stateMutability": "nonpayable",
      "type": "function"
    },
    {
      "inputs": [],
      "name": "getCompanies",
      "outputs": [
        {
          "components": [
            {
              "internalType": "string",
              "name": "name",
              "type": "string"
            },
            {
              "internalType": "address[]",
              "name": "founders",
              "type": "address[]"
            },
            {
              "internalType": "uint256",
              "name": "num_shares",
              "type": "uint256"
            },
            {
              "internalType": "address",
              "name": "contract_address",
              "type": "address"
            }
          ],
          "internalType": "struct SCS.Company[]",
          "name": "",
          "type": "tuple[]"
        }
      ],
      "stateMutability": "view",
      "type": "function"
    },
    {
      "inputs": [
        {
          "internalType": "address",
          "name": "operator",
          "type": "address"
        },
        {
          "internalType": "address",
          "name": "from",
          "type": "address"
        },
        {
          "internalType": "uint256",
          "name": "id",
          "type": "uint256"
        },
        {
          "internalType": "uint256",
          "name": "value",
          "type": "uint256"
        },
        {
          "internalType": "bytes",
          "name": "data",
          "type": "bytes"
        }
      ],
      "name": "onERC1155Received",
      "outputs": [
        {
          "internalType": "bytes4",
          "name": "",
          "type": "bytes4"
        }
      ],
      "stateMutability": "nonpayable",
      "type": "function"
    },
    {
      "inputs": [
        {
          "internalType": "address",
          "name": "operator",
          "type": "address"
        },
        {
          "internalType": "address",
          "name": "from",
          "type": "address"
        },
        {
          "internalType": "uint256[]",
          "name": "ids",
          "type": "uint256[]"
        },
        {
          "internalType": "uint256[]",
          "name": "values",
          "type": "uint256[]"
        },
        {
          "internalType": "bytes",
          "name": "data",
          "type": "bytes"
        }
      ],
      "name": "onERC1155BatchReceived",
      "outputs": [
        {
          "internalType": "bytes4",
          "name": "",
          "type": "bytes4"
        }
      ],
      "stateMutability": "nonpayable",
      "type": "function"
    },
    {
      "inputs": [
        {
          "internalType": "bytes4",
          "name": "interfaceId",
          "type": "bytes4"
        }
      ],
      "name": "supportsInterface",
      "outputs": [
        {
          "internalType": "bool",
          "name": "",
          "type": "bool"
        }
      ],
      "stateMutability": "view",
      "type": "function"
    }
  ],
  "bytecode": "0x608060405234801561001057600080fd5b50600080546001600160a01b031916331790556133da806100326000396000f3fe60806040523480156200001157600080fd5b50600436106200005e5760003560e01c806301ffc9a714620000635780630c0b6691146200009f5780632c0f841814620000b8578063bc197c8114620000d1578063f23a6e611462000129575b600080fd5b6200008a620000743660046200052a565b6001600160e01b0319166301ffc9a760e01b1490565b60405190151581526020015b60405180910390f35b620000a962000165565b604051620000969190620005ad565b620000cf620000c936600462000781565b620002e7565b005b6200010f620000e2366004620008e2565b7fbc197c819b3e337a6f9652dd10becd7eef83032af3b9d958d3d42f669414662198975050505050505050565b6040516001600160e01b0319909116815260200162000096565b6200010f6200013a366004620009ab565b7ff23a6e612e1ff4830e658fe43f4e3cb4a5f8170bd5d9e69fb5d7a7fa9e4fdf979695505050505050565b60606001805480602002602001604051908101604052809291908181526020016000905b82821015620002de5783829060005260206000209060040201604051806080016040529081600082018054620001bf9062000a2b565b80601f0160208091040260200160405190810160405280929190818152602001828054620001ed9062000a2b565b80156200023e5780601f1062000212576101008083540402835291602001916200023e565b820191906000526020600020905b8154815290600101906020018083116200022057829003601f168201915b5050505050815260200160018201805480602002602001604051908101604052809291908181526020018280548015620002a257602002820191906000526020600020905b81546001600160a01b0316815260019091019060200180831162000283575b505050918352505060028201546020808301919091526003909201546001600160a01b0316604090910152908252600192909201910162000189565b50505050905090565b6000838383604051620002fa906200041e565b620003089392919062000a68565b604051809103906000f08015801562000325573d6000803e3d6000fd5b506040805160808101825286815260208082018790529181018590526001600160a01b038316606082015260018054808201825560009190915281518051949550919360049091027fb10e2d527612073b26eecdfd717e6a320cf44b4afac2b0732d9fcbe2b7fa0cf60192620003a09284929101906200042c565b506020828101518051620003bb9260018501920190620004bb565b506040828101516002830155606090920151600390910180546001600160a01b0319166001600160a01b039092169190911790555133907faf00cebe9bcf143d4aaf9af981db775325400dfff1f9916c76b5d17d72ffc94e90600090a250505050565b6128cf8062000ad683390190565b8280546200043a9062000a2b565b90600052602060002090601f0160209004810192826200045e5760008555620004a9565b82601f106200047957805160ff1916838001178555620004a9565b82800160010185558215620004a9579182015b82811115620004a95782518255916020019190600101906200048c565b50620004b792915062000513565b5090565b828054828255906000526020600020908101928215620004a9579160200282015b82811115620004a957825182546001600160a01b0319166001600160a01b03909116178255602090920191600190910190620004dc565b5b80821115620004b7576000815560010162000514565b6000602082840312156200053d57600080fd5b81356001600160e01b0319811681146200055657600080fd5b9392505050565b6000815180845260005b81811015620005855760208185018101518683018201520162000567565b8181111562000598576000602083870101525b50601f01601f19169290920160200192915050565b60006020808301818452808551808352604092508286019150828160051b8701018488016000805b848110156200067957603f198a8503018652825160808151818752620005fe828801826200055d565b838c0151888203898e01528051808352908d019350869250908c01905b80831015620006465783516001600160a01b03168252928c019260019290920191908c01906200061b565b50838b0151888c01526060938401516001600160a01b0316939097019290925250509487019491870191600101620005d5565b50919998505050505050505050565b634e487b7160e01b600052604160045260246000fd5b604051601f8201601f1916810167ffffffffffffffff81118282101715620006ca57620006ca62000688565b604052919050565b80356001600160a01b0381168114620006ea57600080fd5b919050565b600082601f8301126200070157600080fd5b8135602067ffffffffffffffff82111562000720576200072062000688565b8160051b620007318282016200069e565b92835284810182019282810190878511156200074c57600080fd5b83870192505b8483101562000776576200076683620006d2565b8252918301919083019062000752565b979650505050505050565b6000806000606084860312156200079757600080fd5b833567ffffffffffffffff80821115620007b057600080fd5b818601915086601f830112620007c557600080fd5b8135602082821115620007dc57620007dc62000688565b620007f0601f8301601f191682016200069e565b82815289828487010111156200080557600080fd5b828286018383013760009281018201929092529095508601359150808211156200082e57600080fd5b506200083d86828701620006ef565b925050604084013590509250925092565b60008083601f8401126200086157600080fd5b50813567ffffffffffffffff8111156200087a57600080fd5b6020830191508360208260051b85010111156200089657600080fd5b9250929050565b60008083601f840112620008b057600080fd5b50813567ffffffffffffffff811115620008c957600080fd5b6020830191508360208285010111156200089657600080fd5b60008060008060008060008060a0898b031215620008ff57600080fd5b6200090a89620006d2565b97506200091a60208a01620006d2565b9650604089013567ffffffffffffffff808211156200093857600080fd5b620009468c838d016200084e565b909850965060608b01359150808211156200096057600080fd5b6200096e8c838d016200084e565b909650945060808b01359150808211156200098857600080fd5b50620009978b828c016200089d565b999c989b5096995094979396929594505050565b60008060008060008060a08789031215620009c557600080fd5b620009d087620006d2565b9550620009e060208801620006d2565b94506040870135935060608701359250608087013567ffffffffffffffff81111562000a0b57600080fd5b62000a1989828a016200089d565b979a9699509497509295939492505050565b600181811c9082168062000a4057607f821691505b6020821081141562000a6257634e487b7160e01b600052602260045260246000fd5b50919050565b60608152600062000a7d60608301866200055d565b82810360208481019190915285518083528682019282019060005b8181101562000abf5784516001600160a01b03168352938301939183019160010162000a98565b505080935050505082604083015294935050505056fe608060405260006009553480156200001657600080fd5b50604051620028cf380380620028cf833981016040819052620000399162000751565b6040518060800160405280605d815260200162002872605d91396200005e816200022c565b506000825111620000c05760405162461bcd60e51b815260206004820152602160248201527f4e756d626572206f66206f776e657273206d757374206265206e6f6e2d7a65726044820152606f60f81b60648201526084015b60405180910390fd5b600880546001600160a01b031916301790558251620000e790600390602086019062000593565b5042600455600581905560005b8251811015620001fe57600083828151811062000115576200011562000824565b6020908102919091018101516001600160a01b0381166000908152600790925260409091205490915060ff1615620001855760405162461bcd60e51b81526020600482015260126024820152712737ba103ab734b8bab2903337bab73232b960711b6044820152606401620000b7565b6001600160a01b03166000818152600760205260408120805460ff191660019081179091556006805491820181559091527ff652222313e28459528d920b65115c16c04f3efc82aaedc97be59f3f377c0d3f0180546001600160a01b031916909117905580620001f58162000850565b915050620000f4565b506200022330600183604051806020016040528060008152506200024560201b60201c565b50505062000a2f565b80516200024190600290602084019062000593565b5050565b6001600160a01b038416620002a75760405162461bcd60e51b815260206004820152602160248201527f455243313135353a206d696e7420746f20746865207a65726f206164647265736044820152607360f81b6064820152608401620000b7565b33620002cd81600087620002bb8862000361565b620002c68862000361565b5050505050565b6000848152602081815260408083206001600160a01b038916845290915281208054859290620002ff9084906200086e565b909155505060408051858152602081018590526001600160a01b0380881692600092918516917fc3d58168c5ae7397731d063d5bbf3d657854427343f4c083240f7aacaa2d0f62910160405180910390a4620002c681600087878787620003b7565b604080516001808252818301909252606091600091906020808301908036833701905050905082816000815181106200039e576200039e62000824565b602090810291909101015292915050565b505050505050565b620003d6846001600160a01b03166200058d60201b62000b3a1760201c565b15620003af5760405163f23a6e6160e01b81526001600160a01b0385169063f23a6e6190620004129089908990889088908890600401620008b7565b6020604051808303816000875af192505050801562000450575060408051601f3d908101601f191682019092526200044d91810190620008fe565b60015b62000511576200045f62000931565b806308c379a01415620004a05750620004776200094e565b80620004845750620004a2565b8060405162461bcd60e51b8152600401620000b79190620009dd565b505b60405162461bcd60e51b815260206004820152603460248201527f455243313135353a207472616e7366657220746f206e6f6e204552433131353560448201527f526563656976657220696d706c656d656e7465720000000000000000000000006064820152608401620000b7565b6001600160e01b0319811663f23a6e6160e01b14620005845760405162461bcd60e51b815260206004820152602860248201527f455243313135353a204552433131353552656365697665722072656a656374656044820152676420746f6b656e7360c01b6064820152608401620000b7565b50505050505050565b3b151590565b828054620005a190620009f2565b90600052602060002090601f016020900481019282620005c5576000855562000610565b82601f10620005e057805160ff191683800117855562000610565b8280016001018555821562000610579182015b8281111562000610578251825591602001919060010190620005f3565b506200061e92915062000622565b5090565b5b808211156200061e576000815560010162000623565b634e487b7160e01b600052604160045260246000fd5b601f8201601f191681016001600160401b038111828210171562000677576200067762000639565b6040525050565b60005b838110156200069b57818101518382015260200162000681565b83811115620006ab576000848401525b50505050565b600082601f830112620006c357600080fd5b815160206001600160401b03821115620006e157620006e162000639565b8160051b604051620006f6838301826200064f565b928352848101820192828101878511156200071057600080fd5b83870192505b84831015620007465782516001600160a01b0381168114620007385760008081fd5b815291830191830162000716565b509695505050505050565b6000806000606084860312156200076757600080fd5b83516001600160401b03808211156200077f57600080fd5b818601915086601f8301126200079457600080fd5b815181811115620007a957620007a962000639565b604051620007c2601f8301601f1916602001826200064f565b818152886020838601011115620007d857600080fd5b620007eb8260208301602087016200067e565b6020880151909650925050808211156200080457600080fd5b506200081386828701620006b1565b925050604084015190509250925092565b634e487b7160e01b600052603260045260246000fd5b634e487b7160e01b600052601160045260246000fd5b60006000198214156200086757620008676200083a565b5060010190565b600082198211156200088457620008846200083a565b500190565b60008151808452620008a38160208601602086016200067e565b601f01601f19169290920160200192915050565b6001600160a01b03868116825285166020820152604081018490526060810183905260a060808201819052600090620008f39083018462000889565b979650505050505050565b6000602082840312156200091157600080fd5b81516001600160e01b0319811681146200092a57600080fd5b9392505050565b600060033d11156200094b5760046000803e5060005160e01c5b90565b600060443d10156200095d5790565b6040516003193d81016004833e81513d6001600160401b0380831160248401831017156200098d57505050505090565b8285019150815181811115620009a65750505050505090565b843d8701016020828501011115620009c15750505050505090565b620009d2602082860101876200064f565b509095945050505050565b6020815260006200092a602083018462000889565b600181811c9082168062000a0757607f821691505b6020821081141562000a2957634e487b7160e01b600052602260045260246000fd5b50919050565b611e338062000a3f6000396000f3fe608060405234801561001057600080fd5b50600436106101365760003560e01c80638ce65d74116100b8578063bc197c811161007c578063bc197c8114610284578063d8e75f62146102d8578063e985e9c5146102eb578063f23a6e6114610327578063f242432a14610360578063fc833ac61461037357600080fd5b80638ce65d741461020d5780638fcb4e5b14610220578063966b351414610233578063a22cb4651461025e578063b1aa90a11461027157600080fd5b8063436c595e116100ff578063436c595e146101c15780634e1273f4146101c957806374f894d4146101e95780637a5c79ff146101f1578063853c637d146101fa57600080fd5b8062fdd58e1461013b57806301ffc9a7146101615780630e89341c1461018457806315b8faf2146101a45780632eb2c2d6146101ac575b600080fd5b61014e61014936600461141d565b61037b565b6040519081526020015b60405180910390f35b61017461016f36600461145d565b610412565b6040519015158152602001610158565b610197610192366004611481565b610464565b60405161015891906114e7565b60055461014e565b6101bf6101ba366004611646565b6104f8565b005b6101bf61058f565b6101dc6101d73660046116f0565b6105e7565b60405161015891906117f6565b60095461014e565b61014e60055481565b6101bf610208366004611481565b610711565b6101bf61021b366004611481565b610820565b6101bf61022e36600461141d565b6108a0565b600854610246906001600160a01b031681565b6040516001600160a01b039091168152602001610158565b6101bf61026c366004611809565b61095c565b6101bf61027f366004611481565b61096b565b6102bf6102923660046118d3565b7fbc197c819b3e337a6f9652dd10becd7eef83032af3b9d958d3d42f669414662198975050505050505050565b6040516001600160e01b03199091168152602001610158565b6102466102e6366004611481565b610a89565b6101746102f936600461198e565b6001600160a01b03918216600090815260016020908152604080832093909416825291909152205460ff1690565b6102bf6103353660046119c1565b7ff23a6e612e1ff4830e658fe43f4e3cb4a5f8170bd5d9e69fb5d7a7fa9e4fdf979695505050505050565b6101bf61036e366004611a39565b610ab3565b61014e600181565b60006001600160a01b0383166103ec5760405162461bcd60e51b815260206004820152602b60248201527f455243313135353a2062616c616e636520717565727920666f7220746865207a60448201526a65726f206164647265737360a81b60648201526084015b60405180910390fd5b506000908152602081815260408083206001600160a01b03949094168352929052205490565b60006001600160e01b03198216636cdb3d1360e11b148061044357506001600160e01b031982166303a24d0760e21b145b8061045e57506301ffc9a760e01b6001600160e01b03198316145b92915050565b60606002805461047390611a9e565b80601f016020809104026020016040519081016040528092919081815260200182805461049f90611a9e565b80156104ec5780601f106104c1576101008083540402835291602001916104ec565b820191906000526020600020905b8154815290600101906020018083116104cf57829003601f168201915b50505050509050919050565b6001600160a01b038516331480610514575061051485336102f9565b61057b5760405162461bcd60e51b815260206004820152603260248201527f455243313135353a207472616e736665722063616c6c6572206973206e6f74206044820152711bdddb995c881b9bdc88185c1c1c9bdd995960721b60648201526084016103e3565b6105888585858585610b40565b5050505050565b3360009081526007602052604090205460ff161515600114806105b157503330145b6105cd5760405162461bcd60e51b81526004016103e390611ad9565b6001600960008282546105e09190611b32565b9091555050565b6060815183511461064c5760405162461bcd60e51b815260206004820152602960248201527f455243313135353a206163636f756e747320616e6420696473206c656e677468604482015268040dad2e6dac2e8c6d60bb1b60648201526084016103e3565b6000835167ffffffffffffffff811115610668576106686114fa565b604051908082528060200260200182016040528015610691578160200160208202803683370190505b50905060005b8451811015610709576106dc8582815181106106b5576106b5611b4a565b60200260200101518583815181106106cf576106cf611b4a565b602002602001015161037b565b8282815181106106ee576106ee611b4a565b602090810291909101015261070281611b60565b9050610697565b509392505050565b3360009081526007602052604090205460ff1615156001148061073357503330145b61074f5760405162461bcd60e51b81526004016103e390611ad9565b336000908152600b60205260408120805460ff191660011790555b6006548110156107cd57600b60006006838154811061078b5761078b611b4a565b60009182526020808320909101546001600160a01b0316835282019290925260400190205460ff166107bb575050565b806107c581611b60565b91505061076a565b506107da30600183610d1d565b80600560008282546107ec9190611b7b565b909155505060405130907fd9bfb419ddd37af955bbd602072c0f6ad15fdc1b41f8b21519eb02ba6651cc8b90600090a25b50565b3360009081526007602052604090205460ff1615156001148061084257503330145b61085e5760405162461bcd60e51b81526004016103e390611ad9565b610869600554610711565b6108728161096b565b60405130907f5de575735d232ba6b1a823dd43f898ad742ec222d747314421d32cf27cc64c9390600090a250565b3360009081526007602052604090205460ff161515600114806108c257503330145b6108de5760405162461bcd60e51b81526004016103e390611ad9565b6005548111156109245760405162461bcd60e51b81526020600482015260116024820152704e6f7420656e6f7567682073686172657360781b60448201526064016103e3565b610941308360018460405180602001604052806000815250610e97565b80600560008282546109539190611b7b565b90915550505050565b610967338383610fbd565b5050565b3360009081526007602052604090205460ff1615156001148061098d57503330145b6109a95760405162461bcd60e51b81526004016103e390611ad9565b336000908152600a60205260408120805460ff191660011790555b600654811015610a2757600a6000600683815481106109e5576109e5611b4a565b60009182526020808320909101546001600160a01b0316835282019290925260400190205460ff16610a15575050565b80610a1f81611b60565b9150506109c4565b50610a44306001836040518060200160405280600081525061109e565b8060056000828254610a569190611b32565b909155505060405130907fc223e75123cea96fcfe2c9edabb854829841895c18880505fb134c3028c0c2a790600090a250565b60068181548110610a9957600080fd5b6000918252602090912001546001600160a01b0316905081565b6001600160a01b038516331480610acf5750610acf85336102f9565b610b2d5760405162461bcd60e51b815260206004820152602960248201527f455243313135353a2063616c6c6572206973206e6f74206f776e6572206e6f7260448201526808185c1c1c9bdd995960ba1b60648201526084016103e3565b6105888585858585610e97565b3b151590565b8151835114610ba25760405162461bcd60e51b815260206004820152602860248201527f455243313135353a2069647320616e6420616d6f756e7473206c656e677468206044820152670dad2e6dac2e8c6d60c31b60648201526084016103e3565b6001600160a01b038416610bc85760405162461bcd60e51b81526004016103e390611b92565b3360005b8451811015610caf576000858281518110610be957610be9611b4a565b602002602001015190506000858381518110610c0757610c07611b4a565b602090810291909101810151600084815280835260408082206001600160a01b038e168352909352919091205490915081811015610c575760405162461bcd60e51b81526004016103e390611bd7565b6000838152602081815260408083206001600160a01b038e8116855292528083208585039055908b16825281208054849290610c94908490611b32565b9250508190555050505080610ca890611b60565b9050610bcc565b50846001600160a01b0316866001600160a01b0316826001600160a01b03167f4a39dc06d4c0dbc64b70af90fd698a233a518aa5d07e595d983b8c0526c8f7fb8787604051610cff929190611c21565b60405180910390a4610d1581878787878761119f565b505050505050565b6001600160a01b038316610d7f5760405162461bcd60e51b815260206004820152602360248201527f455243313135353a206275726e2066726f6d20746865207a65726f206164647260448201526265737360e81b60648201526084016103e3565b33610daf81856000610d90876112fb565b610d99876112fb565b5050604080516020810190915260009052505050565b6000838152602081815260408083206001600160a01b038816845290915290205482811015610e2c5760405162461bcd60e51b8152602060048201526024808201527f455243313135353a206275726e20616d6f756e7420657863656564732062616c604482015263616e636560e01b60648201526084016103e3565b6000848152602081815260408083206001600160a01b03898116808652918452828520888703905582518981529384018890529092908616917fc3d58168c5ae7397731d063d5bbf3d657854427343f4c083240f7aacaa2d0f62910160405180910390a45050505050565b6001600160a01b038416610ebd5760405162461bcd60e51b81526004016103e390611b92565b33610ed6818787610ecd886112fb565b610588886112fb565b6000848152602081815260408083206001600160a01b038a16845290915290205483811015610f175760405162461bcd60e51b81526004016103e390611bd7565b6000858152602081815260408083206001600160a01b038b8116855292528083208785039055908816825281208054869290610f54908490611b32565b909155505060408051868152602081018690526001600160a01b03808916928a821692918616917fc3d58168c5ae7397731d063d5bbf3d657854427343f4c083240f7aacaa2d0f62910160405180910390a4610fb4828888888888611346565b50505050505050565b816001600160a01b0316836001600160a01b031614156110315760405162461bcd60e51b815260206004820152602960248201527f455243313135353a2073657474696e6720617070726f76616c20737461747573604482015268103337b91039b2b63360b91b60648201526084016103e3565b6001600160a01b03838116600081815260016020908152604080832094871680845294825291829020805460ff191686151590811790915591519182527f17307eab39ab6107e8899845ad3d59bd9653f200f220920489ca2b5937696c31910160405180910390a3505050565b6001600160a01b0384166110fe5760405162461bcd60e51b815260206004820152602160248201527f455243313135353a206d696e7420746f20746865207a65726f206164647265736044820152607360f81b60648201526084016103e3565b3361110f81600087610ecd886112fb565b6000848152602081815260408083206001600160a01b03891684529091528120805485929061113f908490611b32565b909155505060408051858152602081018590526001600160a01b0380881692600092918516917fc3d58168c5ae7397731d063d5bbf3d657854427343f4c083240f7aacaa2d0f62910160405180910390a461058881600087878787611346565b6001600160a01b0384163b15610d155760405163bc197c8160e01b81526001600160a01b0385169063bc197c81906111e39089908990889088908890600401611c4f565b6020604051808303816000875af192505050801561121e575060408051601f3d908101601f1916820190925261121b91810190611cad565b60015b6112cb5761122a611cca565b806308c379a01415611264575061123f611ce6565b8061124a5750611266565b8060405162461bcd60e51b81526004016103e391906114e7565b505b60405162461bcd60e51b815260206004820152603460248201527f455243313135353a207472616e7366657220746f206e6f6e20455243313135356044820152732932b1b2b4bb32b91034b6b83632b6b2b73a32b960611b60648201526084016103e3565b6001600160e01b0319811663bc197c8160e01b14610fb45760405162461bcd60e51b81526004016103e390611d70565b6040805160018082528183019092526060916000919060208083019080368337019050509050828160008151811061133557611335611b4a565b602090810291909101015292915050565b6001600160a01b0384163b15610d155760405163f23a6e6160e01b81526001600160a01b0385169063f23a6e619061138a9089908990889088908890600401611db8565b6020604051808303816000875af19250505080156113c5575060408051601f3d908101601f191682019092526113c291810190611cad565b60015b6113d15761122a611cca565b6001600160e01b0319811663f23a6e6160e01b14610fb45760405162461bcd60e51b81526004016103e390611d70565b80356001600160a01b038116811461141857600080fd5b919050565b6000806040838503121561143057600080fd5b61143983611401565b946020939093013593505050565b6001600160e01b03198116811461081d57600080fd5b60006020828403121561146f57600080fd5b813561147a81611447565b9392505050565b60006020828403121561149357600080fd5b5035919050565b6000815180845260005b818110156114c0576020818501810151868301820152016114a4565b818111156114d2576000602083870101525b50601f01601f19169290920160200192915050565b60208152600061147a602083018461149a565b634e487b7160e01b600052604160045260246000fd5b601f8201601f1916810167ffffffffffffffff81118282101715611536576115366114fa565b6040525050565b600067ffffffffffffffff821115611557576115576114fa565b5060051b60200190565b600082601f83011261157257600080fd5b8135602061157f8261153d565b60405161158c8282611510565b83815260059390931b85018201928281019150868411156115ac57600080fd5b8286015b848110156115c757803583529183019183016115b0565b509695505050505050565b600082601f8301126115e357600080fd5b813567ffffffffffffffff8111156115fd576115fd6114fa565b604051611614601f8301601f191660200182611510565b81815284602083860101111561162957600080fd5b816020850160208301376000918101602001919091529392505050565b600080600080600060a0868803121561165e57600080fd5b61166786611401565b945061167560208701611401565b9350604086013567ffffffffffffffff8082111561169257600080fd5b61169e89838a01611561565b945060608801359150808211156116b457600080fd5b6116c089838a01611561565b935060808801359150808211156116d657600080fd5b506116e3888289016115d2565b9150509295509295909350565b6000806040838503121561170357600080fd5b823567ffffffffffffffff8082111561171b57600080fd5b818501915085601f83011261172f57600080fd5b8135602061173c8261153d565b6040516117498282611510565b83815260059390931b850182019282810191508984111561176957600080fd5b948201945b8386101561178e5761177f86611401565b8252948201949082019061176e565b965050860135925050808211156117a457600080fd5b506117b185828601611561565b9150509250929050565b600081518084526020808501945080840160005b838110156117eb578151875295820195908201906001016117cf565b509495945050505050565b60208152600061147a60208301846117bb565b6000806040838503121561181c57600080fd5b61182583611401565b91506020830135801515811461183a57600080fd5b809150509250929050565b60008083601f84011261185757600080fd5b50813567ffffffffffffffff81111561186f57600080fd5b6020830191508360208260051b850101111561188a57600080fd5b9250929050565b60008083601f8401126118a357600080fd5b50813567ffffffffffffffff8111156118bb57600080fd5b60208301915083602082850101111561188a57600080fd5b60008060008060008060008060a0898b0312156118ef57600080fd5b6118f889611401565b975061190660208a01611401565b9650604089013567ffffffffffffffff8082111561192357600080fd5b61192f8c838d01611845565b909850965060608b013591508082111561194857600080fd5b6119548c838d01611845565b909650945060808b013591508082111561196d57600080fd5b5061197a8b828c01611891565b999c989b5096995094979396929594505050565b600080604083850312156119a157600080fd5b6119aa83611401565b91506119b860208401611401565b90509250929050565b60008060008060008060a087890312156119da57600080fd5b6119e387611401565b95506119f160208801611401565b94506040870135935060608701359250608087013567ffffffffffffffff811115611a1b57600080fd5b611a2789828a01611891565b979a9699509497509295939492505050565b600080600080600060a08688031215611a5157600080fd5b611a5a86611401565b9450611a6860208701611401565b93506040860135925060608601359150608086013567ffffffffffffffff811115611a9257600080fd5b6116e3888289016115d2565b600181811c90821680611ab257607f821691505b60208210811415611ad357634e487b7160e01b600052602260045260246000fd5b50919050565b60208082526023908201527f66756e6374696f6e206f6e6c7920617661696c61626c6520746f20666f756e6460408201526265727360e81b606082015260800190565b634e487b7160e01b600052601160045260246000fd5b60008219821115611b4557611b45611b1c565b500190565b634e487b7160e01b600052603260045260246000fd5b6000600019821415611b7457611b74611b1c565b5060010190565b600082821015611b8d57611b8d611b1c565b500390565b60208082526025908201527f455243313135353a207472616e7366657220746f20746865207a65726f206164604082015264647265737360d81b606082015260800190565b6020808252602a908201527f455243313135353a20696e73756666696369656e742062616c616e636520666f60408201526939103a3930b739b332b960b11b606082015260800190565b604081526000611c3460408301856117bb565b8281036020840152611c4681856117bb565b95945050505050565b6001600160a01b0386811682528516602082015260a060408201819052600090611c7b908301866117bb565b8281036060840152611c8d81866117bb565b90508281036080840152611ca1818561149a565b98975050505050505050565b600060208284031215611cbf57600080fd5b815161147a81611447565b600060033d1115611ce35760046000803e5060005160e01c5b90565b600060443d1015611cf45790565b6040516003193d81016004833e81513d67ffffffffffffffff8160248401118184111715611d2457505050505090565b8285019150815181811115611d3c5750505050505090565b843d8701016020828501011115611d565750505050505090565b611d6560208286010187611510565b509095945050505050565b60208082526028908201527f455243313135353a204552433131353552656365697665722072656a656374656040820152676420746f6b656e7360c01b606082015260800190565b6001600160a01b03868116825285166020820152604081018490526060810183905260a060808201819052600090611df29083018461149a565b97965050505050505056fea2646970667358221220d83c979f5160d47c803d36cde9841e4eabaa6f11199fff05d4e9d63753c39a2464736f6c634300080b003368747470733a2f2f697066732e696f2f697066732f516d595a716b794472714c4b346f7756795147477333704731716851586a4e56375172396a566e33396f774d6d653f66696c656e616d653d63657274696669636174652e6a736f6ea26469706673582212209ba29f4cf4c8aa7db8197b700749f9e064050ef9a60db2cff731e89cecd0527064736f6c634300080b0033",
  "immutableReferences": {},
  "source": "// SPDX-License-Identifier: MIT\r\n\r\npragma solidity ^0.8.0;\r\n\r\nimport \"./CompanyContract.sol\";\r\nimport \"../node_modules/@openzeppelin/contracts/token/ERC1155/IERC1155Receiver.sol\";\r\n\r\ncontract SCS is IERC1155Receiver {\r\n    event CompanyCreated(address indexed from);\r\n\r\n    struct Company {\r\n        string name;\r\n        address[] founders;\r\n        uint256 num_shares;\r\n        address contract_address;\r\n    }\r\n\r\n    address owner;\r\n    Company[] companies;\r\n\r\n    modifier onlyOwner() {\r\n        require(msg.sender == owner);\r\n\r\n        _;\r\n    }\r\n\r\n    constructor() {\r\n        owner = msg.sender;\r\n    }\r\n\r\n    function addCompany(\r\n        string memory company_name_,\r\n        address[] memory founders_,\r\n        uint256 num_shares_\r\n    ) public {\r\n        address company_contract_address = address(\r\n            new CompanyContract(company_name_, founders_, num_shares_)\r\n        );\r\n\r\n        companies.push(\r\n            Company({\r\n                name: company_name_,\r\n                founders: founders_,\r\n                num_shares: num_shares_,\r\n                contract_address: company_contract_address\r\n            })\r\n        );\r\n\r\n        emit CompanyCreated(msg.sender);\r\n    }\r\n\r\n    function getCompanies() public view returns (Company[] memory) {\r\n        return companies;\r\n    }\r\n\r\n    function onERC1155Received(\r\n        address operator,\r\n        address from,\r\n        uint256 id,\r\n        uint256 value,\r\n        bytes calldata data\r\n    ) public virtual override returns (bytes4) {\r\n        return\r\n            bytes4(\r\n                keccak256(\r\n                    \"onERC1155Received(address,address,uint256,uint256,bytes)\"\r\n                )\r\n            );\r\n    }\r\n\r\n    function onERC1155BatchReceived(\r\n        address operator,\r\n        address from,\r\n        uint256[] calldata ids,\r\n        uint256[] calldata values,\r\n        bytes calldata data\r\n    ) public virtual override returns (bytes4) {\r\n        return\r\n            bytes4(\r\n                keccak256(\r\n                    \"onERC1155BatchReceived(address,address,uint256[],uint256[],bytes)\"\r\n                )\r\n            );\r\n    }\r\n\r\n    function supportsInterface(bytes4 interfaceId)\r\n        public\r\n        view\r\n        virtual\r\n        override\r\n        returns (bool)\r\n    {\r\n        return interfaceId == type(IERC165).interfaceId;\r\n    }\r\n}\r\n",
  "sourcePath": "E:\\Dev\\Solidity\\scs-app\\truffle\\contracts\\SCS.sol",
  "compiler": {
    "name": "solc",
    "version": "0.8.11+commit.d7f03943.Emscripten.clang"
  },
  "schemaVersion": "3.4.4",
  "updatedAt": "2022-01-17T08:21:10.010Z",
  "devdoc": {
    "kind": "dev",
    "methods": {
      "onERC1155BatchReceived(address,address,uint256[],uint256[],bytes)": {
        "details": "Handles the receipt of a multiple ERC1155 token types. This function is called at the end of a `safeBatchTransferFrom` after the balances have been updated. To accept the transfer(s), this must return `bytes4(keccak256(\"onERC1155BatchReceived(address,address,uint256[],uint256[],bytes)\"))` (i.e. 0xbc197c81, or its own function selector).",
        "params": {
          "data": "Additional data with no specified format",
          "from": "The address which previously owned the token",
          "ids": "An array containing ids of each token being transferred (order and length must match values array)",
          "operator": "The address which initiated the batch transfer (i.e. msg.sender)",
          "values": "An array containing amounts of each token being transferred (order and length must match ids array)"
        },
        "returns": {
          "_0": "`bytes4(keccak256(\"onERC1155BatchReceived(address,address,uint256[],uint256[],bytes)\"))` if transfer is allowed"
        }
      },
      "onERC1155Received(address,address,uint256,uint256,bytes)": {
        "details": "Handles the receipt of a single ERC1155 token type. This function is called at the end of a `safeTransferFrom` after the balance has been updated. To accept the transfer, this must return `bytes4(keccak256(\"onERC1155Received(address,address,uint256,uint256,bytes)\"))` (i.e. 0xf23a6e61, or its own function selector).",
        "params": {
          "data": "Additional data with no specified format",
          "from": "The address which previously owned the token",
          "id": "The ID of the token being transferred",
          "operator": "The address which initiated the transfer (i.e. msg.sender)",
          "value": "The amount of tokens being transferred"
        },
        "returns": {
          "_0": "`bytes4(keccak256(\"onERC1155Received(address,address,uint256,uint256,bytes)\"))` if transfer is allowed"
        }
      },
      "supportsInterface(bytes4)": {
        "details": "Returns true if this contract implements the interface defined by `interfaceId`. See the corresponding https://eips.ethereum.org/EIPS/eip-165#how-interfaces-are-identified[EIP section] to learn more about how these ids are created. This function call must use less than 30 000 gas."
      }
    },
    "version": 1
  },
  "userdoc": {
    "kind": "user",
    "methods": {},
    "version": 1
  }
}